:020000040800F2
:1000000000000220F1900008FD6300080D64000864
:100010001D6400082D6400083D6400080000000015
:100020000000000000000000000000004D64000817
:100030005D640008000000006D6400087D64000835
:100040003591000835910008359100083591000878
:10005000359100083591000835910008077F0008A8
:1000600035910008359100086D7E00083591000833
:100070003591000835910008359100083591000848
:100080003591000835910008359100083591000838
:100090003591000835910008359100083591000828
:1000A0003591000835910008359100083591000818
:1000B0003591000835910008359100083591000808
:1000C00035910008359100083591000835910008F8
:1000D00035910008359100083591000835910008E8
:1000E00035910008359100083591000835910008D8
:1000F00035910008359100083591000835910008C8
:100100003591000839430008359100083591000801
:1001100035910008359100083591000835910008A7
:100120003591000835910008359100083591000897
:100130003591000835910008359100083591000887
:100140003591000835910008359100083591000877
:100150003591000835910008359100083591000867
:100160003591000835910008359100083591000857
:100170003591000835910008359100083591000847
:080180003591000835910008DB
:1001C0000348044B834202D0034B03B118477047E6
:1001D000E4010020E4010020000000000548064B77
:1001E0001B1AD90F01EBA301491002D0034B03B135
:1001F00018477047E4010020E401002000000000DF
:1002000010B5064C237843B9FFF7DAFF044B13B15E
:100210000448AFF300800123237010BDE8010020E3
:10022000000000003891000808B5044B1BB10449D8
:100230000448AFF30080BDE80840CFE700000000AD
:10024000EC01002038910008002A01D002F5807AE4
:10025000704700BF162030A1ABBE2F48416800296F
:1002600001D0344A11600168002901D13049016090
:100270008168C268294B002900D00B469D46FFF7D4
:10028000E3FF00218B460F462548264A121A00F04C
:100290007BF801F067F915202449ABBE23490968B2
:1002A000002001B40B780131002B15D0202BF9D0A0
:1002B000222B01D0272B01D11A0001E02022013985
:1002C00002B401300B780131002B05D09A42F9D1EC
:1002D00000224B1E1A70E5E76946020092006A444C
:1002E0006B469A4206D9043A14681D6815601C6072
:1002F0000433F6E76C460725AC43A54604000D0021
:10030000094800F0A5F800F017F82000290003F0D4
:100310009FFC00F08BF800BF0400002000000000EC
:10032000E8010020582100205D040008140100208D
:10033000582100207C01002070B50F4B0F4DAB42BF
:10034000A3EB050607D0B610002455F8043B013492
:100350009847A642F9D808F0F1FE094D094B5E1BFB
:10036000AB424FEAA60606D0002455F8043B013400
:100370009847A642F9D870BDCC120108CC120108EA
:10038000CC120108D0120108830730B547D0541EA3
:10039000002A3ED0CAB2034601E0013C39D303F83B
:1003A000012B9D07F9D1032C2CD9CDB205EB0525E6
:1003B0000F2C05EB054535D9A4F1100222F00F0CE6
:1003C00003F1100EE6444FEA121C1A46C2E900552A
:1003D000C2E9025510327245F8D10CF1010214F055
:1003E0000C0F03EB021204F00F0C13D0ACF104035A
:1003F00023F003030433134442F8045B9342FBD11C
:100400000CF003042CB1C9B21C4403F8011BA34235
:10041000FBD130BD64461346002CF4D1F9E7034606
:100420001446C0E71A46A446E0E700BF08B5064BED
:10043000044613B1002100F039FC044B1B6803B1E2
:100440009847204600F0FEFCAD0C00083C0300205D
:10045000002301461A46184600F01EBB38B5074D6A
:10046000074C2C1BA41005D0013C55F8043D9847BF
:10047000002CF9D1BDE8384008F066BED41201085E
:10048000D012010800207047024A0349034800F0D7
:10049000E1BA00BF1C010020CD0700083001002098
:1004A0000C4B4168994210B5044601D000F08EF91A
:1004B000A168094B994202D0204600F087F9E16813
:1004C000064B994204D02046BDE8104000F07EB9AA
:1004D00010BD00BF040200206C020020D4020020E6
:1004E000002070472DE9F8432A4C2B49DFF8BC90D7
:1004F000DFF8BC80294FC4F83811002504230822F6
:10050000294604F15C00264EE360C4E90055C4E9C5
:100510000455A5606566A561FFF736FF214B63674B
:100520000822294604F1C400C4E90849C4E90A873D
:10053000C4E91A55C4E91E552567C4F8CC50C4F85F
:1005400080502663FFF720FF174BC4F8DC302946A4
:1005500004F16803082204F59670C4F88830C4E9F1
:100560002398C4E92576C4E93455C4E93855C4F85C
:10057000D850C4F83451C4F8E850FFF705FF04F12F
:10058000D003C4E93D98C4E93F76C4F8F030BDE833
:10059000F88300BF0402002089040008D90B00087A
:1005A000FD0B00080900010012000200710B000899
:1005B000990B0008F8B5254BD3F838310646002BC7
:1005C0003CD0234FD7E90134013B04D51DE05A1C30
:1005D00004F1680419D0B4F90C50013B002DF6D198
:1005E0001C4BE360C4E90155C4E904556566256008
:1005F000A5610822294604F15C00FFF7C5FEC4E9A5
:100600000D55C4E912552046F8BD3D680DB12F4681
:10061000D8E74FF4D671304600F03EF9044680B179
:100620000423C0E900530C302946A0604FF4D07277
:100630002546FFF7A9FE3C602F46C3E7FFF752FFB0
:10064000BFE70C2338603360DDE700BF0402002001
:100650001C0100200100FFFF036A03B17047044B37
:10066000044AD3F838310262002BF7D13AE700BFD1
:1006700004020020A1040008704700BF704700BFBB
:10068000024A0349002000F0E5B900BF1C01002028
:1006900085040008024A0349002000F0DBB900BFCE
:1006A0001C010020E1040008B1F90C302DE9F041F3
:1006B0001E070C4680463DD44A68002A56DDE56A8E
:1006C000002D34D00022D8F80060C8F8002013F4C0
:1006D0008052216A57D101234046A847451C024653
:1006E00066D0B4F90C30E56A216A580705D563680D
:1006F000D21A636B0BB1236CD21A00234046A84771
:10070000431C42D00023636023692360A389DF0474
:1007100000D56065616BC8F8006041B104F1440325
:10072000994202D0404600F037F90023636300206D
:10073000BDE8F0810E69002EF9D09B070D6808BF57
:100740004B690E6018BF0023AD1B8B600BE02B467E
:100750003246216AA76A4046B847B0F1000CA5EBC3
:100760000C05664406DD002DF1DCE0E70A6C002A8A
:10077000A5DCDCE7B4F90C3043F04003A3814FF073
:10078000FF30BDE8F081626DAFE7D8F80010B4F932
:100790000C301D29F0D80C4ACA40D507ECD5226987
:1007A000226000226260DA04B4D50029B1D0B1E73A
:1007B000D8F80030002B94D01D2B01D0162BD9D1A6
:1007C000C8F80060B3E700BF010040200B69B3B177
:1007D00010B5044682B008B1036A5BB1B1F90C30C0
:1007E00013B9002002B010BD204602B0BDE8104091
:1007F000FFF75ABF0191FFF72FFF0199EEE70020A5
:10080000704700BFB8B138B50D4A03691568044692
:100810002BB10DB12B6A53B1B4F90C300BB90020D8
:1008200038BD21462846BDE83840FFF73DBF284681
:10083000FFF712FFF0E7034A0349044800F00AB942
:100840002C0100201C010020CD07000830010020F1
:1008500070B5104E336805460C46B3B121462846A4
:1008600000F074F9431C0CD0C41C24F00304A04213
:1008700005D0211A284600F069F9013001D0204640
:1008800070BD4FF0FF34204670BD194600F05EF990
:100890003060E3E7400300202DE9F843CD1C25F04C
:1008A000030508350C2D38BF0C25002D064618DB36
:1008B000A94216D8DFF8DC8000F044F9D8F804200B
:1008C000A2B1144603E0636822467BB11C4623684C
:1008D0005B1BF8D40B2B1FD89442636854D0536031
:1008E0000CE00C2333600020BDE8F8832946304635
:1008F000FFF7AEFF431C044619D00560304600F0F8
:1009000023F904F10B00231D20F00700C21A1CBFBD
:100910001B1AA350BDE8F88361199442256014BFE7
:100920005160C8F80410635163684B60E6E7D8F87B
:1009300004701FB33C467F68002FFBD12368394603
:10094000304604EB030900F001F9814516D1236814
:10095000ED1A29463046FFF77BFF01300ED02368A1
:10096000D8F804202B442360536883B1A34203D0FA
:100970001A465B689C42FBD10023B0E70C2333602E
:10098000304600F0E1F8AEE7C8F80430B6E7C8F842
:100990000470B3E740030020002950D038B551F867
:1009A000043C0C1F002BB8BFE418054600F0CAF841
:1009B000274A13682BB1A3420CD9216860188342DF
:1009C0002CD0636028461460BDE8384000F0BCB805
:1009D000A3420FD81A465B68002BF9D11168501852
:1009E000844217D02CD3636054602846BDE8384059
:1009F00000F0AAB811685018A04214D020D821687D
:100A000060188342EFD118685B680844C4E90003AA
:100A10005460EAE723680B441360E6E718685B68F4
:100A200008442060CDE720680144501883421160DB
:100A3000DBD1D3E900040144C2E90014D5E77047D3
:100A40000C232B602846BDE8384000F07DB800BF7D
:100A5000440300202DE9F8430746884616464FF028
:100A60000009D6E90154013D10D4A389012B08D90E
:100A7000B4F90E3001332146384602D0C04749EA66
:100A80000009013D6B1C04F16804EED13668002EAC
:100A9000E7D14846BDE8F883F0B5264C256883B019
:100AA00006460F4605B36C681F2C3FDCA6B1D5F88F
:100AB000880048B3D0F8001140F824204FF0010C12
:100AC0000CFA04FC00EB84024CEA0101022EC0F88F
:100AD0000011C2F8803010D0A31C01346C6045F8BE
:100AE0002370002003B0F0BD13481449216010B1F9
:100AF0000068C1F88800114DD5E7D0F8043143EA09
:100B00000C03C0F80431E7E70D49CDE9002369B1D2
:100B10004FF48470AFF3008040B10021C0E9401170
:100B2000DDE900236C68C5F88800C5E74FF0FF30A9
:100B3000D8E700BFD40300200000000048030020D5
:100B400000000000704700BF704700BF38B5074D78
:100B50000022044608462A6000F042FB431C00D0F5
:100B600038BD2B68002BFBD0236038BDD803002094
:100B700010B50C46B1F90E1000F044F8002803DB64
:100B8000636D0344636510BDA38923F48053A3817F
:100B900010BD00BF002070472DE9F0410C46B1F9AF
:100BA0000C101F46CB05054616460BD421F4805188
:100BB000A1813B46B4F90E1032462846BDE8F0410B
:100BC00000F036B8B4F90E100223002200F058F8F5
:100BD000B4F90C10EAE700BF10B50C46B1F90E10DD
:100BE00000F04EF8B4F90C30421C0EBF23F48053D1
:100BF00043F480536065A38110BD00BFB1F90E10AE
:100C000000F02CB838B50C46084D844611462046F5
:100C10001A4600232B60644600F062F9431C00D0A2
:100C200038BD2B68002BFBD0236038BDD8030020D3
:100C300038B50C46084D8446114620461A46002316
:100C40002B60644600F010FA431C00D038BD2B68BE
:100C5000002BFBD0236038BDD803002038B5074DEA
:100C60000022044608462A6000F06EFA431C00D0B9
:100C700038BD2B68002BFBD0236038BDD803002083
:100C800038B50C46084D8446114620461A460023C6
:100C90002B60644600F0C8F9431C00D038BD2B68B7
:100CA000002BFBD0236038BDD80300202DE9F04F86
:100CB000DFF8B890D9F8006083B0002E34D08846B1
:100CC00001907568D6F888706C1E2DD4013506EB3E
:100CD000850507F1800BB8F1000F28D173682A68E9
:100CE000013BA34216BF002374602B60BAB1D6F853
:100CF00004A06FB3D7F800110123A3400B4227D003
:100D0000D7F8040157F8241003422BD101989047DB
:100D10007368D9F80020534520D1B2421ED1013C5E
:100D2000631CA5F10405D6D103B0BDE8F08F57B11F
:100D30005BF824304345D1D0013C621CA5F1040589
:100D4000F2D0002FF4D1013CEED3013CFBD2EBE713
:100D500090477368D9F800205345DED0002AE3D0CD
:100D60001646AEE708469047D2E700BFD4030020FE
:100D7000334B1B68834261D0C26970B50546002AB7
:100D800053D0D16891B100268C5944B121462468D2
:100D90002846FFF701FE002CF8D1EB69D96804362C
:100DA000802EF1D12846FFF7F7FDEA69116819B1E5
:100DB0002846FFF7F1FDEA699468002C3AD02146F5
:100DC00024682846FFF7E8FD002CF8D1696911B1C5
:100DD0002846FFF7E1FDEA691AB111462846FFF7F8
:100DE000DBFD296B11B12846FFF7D6FD696B11B108
:100DF0002846FFF7D1FDA96B11B12846FFF7CCFDBE
:100E0000A96C11B12846FFF7C7FD696C11B12846DE
:100E1000FFF7C2FDE96A11B12846FFF7BDFD2B6A55
:100E20003BB12846BDE87040184741690029CFD141
:100E3000D7E770BD69690029CAD1CEE7704700BF06
:100E40002C010020014608B5024A4FF0FF3000F0A7
:100E500003F800BF2600020000B583B0CDE90021F1
:100E600000F040FB00280CBF1824202400F03AFBBF
:100E700020B16D4620462946ABBE0446009D204663
:100E80002946ABBE044600BF062908B502D0034A76
:100E9000FFF7E2FF024AFFF7DFFF00BF2600020074
:100EA00023000200F0B585B0CDE9010103920624CC
:100EB00001AD20462946ABBE0446631C02D0204645
:100EC00005B0F0BD07F028FB132605460027304685
:100ED0003946ABBE064620462E6005B0F0BD00BFC9
:100EE0002DE9F0411F4B1B6884B005460F461446A0
:100EF0000BB11A6AE2B1132D1FD81B4E56F83530CC
:100F00005A1C1AD0CDE90137039406270DF10408C5
:100F100038464146ABBE07467B1C13D006EBC503E3
:100F2000E41B5A68204622445A6004B0BDE8F081B0
:100F30001846FFF791FB132DDFD907F0EDFA0923CF
:100F4000036009E007F0E8FA132504460026284666
:100F50003146ABBE054625604FF0FF3004B0BDE81A
:100F6000F08100BF2C010020DC0300202DE9F041BE
:100F70002B4B1B6882B005460C46164613B11A6A05
:100F8000002A43D0132D46D8264F57F83530591C28
:100F900041D0022E28D8012E21D0022E12D0E846B0
:100FA000CDE900340A2630464146ABBE0646731CE6
:100FB0001FD0002E27DB07EBC5077C60204602B060
:100FC000BDE8F08100930C26E84630464146ABBEB2
:100FD0000646721C0DD057F835303444E0E707EB75
:100FE000C5025268A418DAD507F096FA16230360F2
:100FF00009E007F091FA13250446002628463146F9
:10100000ABBE054625604FF0FF34D7E71846FFF723
:1010100023FB132DB8D907F07FFA09230360F2E709
:101020002C010020DC030020FFF7A0BFF0B585B045
:10103000CDE901010392052401AD20462946ABBE4E
:101040000446631C02D0204605B0F0BD07F064FAE8
:1010500013260546002730463946ABBE06462046D5
:101060002E6005B0F0BD00BF2DE9F041264B1B6896
:1010700084B006460C4615460BB11A6AFAB1132E17
:1010800022D8224F57F836305A1C1DD0CDE90134F2
:10109000039505240DF1040820464146ABBE0446E5
:1010A000631C16D0002C1EDB07EBC603281B5A68F6
:1010B000AC4202445A6019D004B0BDE8F081184631
:1010C000FFF7CAFA132EDCD907F026FA09230360CA
:1010D00009E007F021FA1325044600262846314688
:1010E000ABBE054625604FF0FF30E5E707F014FA88
:1010F00013260546002430462146ABBE0646204650
:101100002E6004B0BDE8F0812C010020DC0300203B
:10111000F0B583B00224019001AD20462946ABBE54
:101120000446631C02D0204603B0F0BD07F0F4F97A
:1011300013260546002730463946ABBE06462046F4
:101140002E6003B0F0BD00BFF0B5224B1B6883B02A
:1011500005460BB11A6A2AB3132D28D81E4E56F82D
:1011600035305A1C23D06A1E012A03D8B16832696F
:10117000914210D00193022401AF20463946ABBE04
:101180000446631C204617D01CB94FF0FF3346F8C5
:10119000353003B0F0BD4FF0FF33002046F8353056
:1011A00003B0F0BD1846FFF757FA132DD6D907F054
:1011B000B3F90923036009E007F0AEF913250446EB
:1011C000002628463146ABBE054625604FF0FF306D
:1011D000DFE700BF2C010020DC0300200120704766
:1011E0000F4A0346D2F8A00010B5A0B103446946E7
:1011F0008B4209D80B490C4C0968A14201D08B42A3
:1012000002D8C2F8A03010BD07F086F90C230360A5
:101210004FF0FF3010BD0548C2F8A000E6E700BF60
:10122000DC0300207C010020ADDEFECA5821002036
:101230001C4B1B6870B505460C460BB11A6ACAB147
:10124000132D1CD8184B53F83520013217D0626883
:101250004FF4806142F400526260A1640C2603EBFB
:10126000C50530462946ABBE05466B1C0CD0256132
:10127000002070BD1846FFF7EFF9132DE2D907F0F3
:101280004BF90923036009E007F046F913250446EA
:10129000002628463146ABBE054625604FF0FF309C
:1012A00070BD00BF2C010020DC0300200B4610B5F0
:1012B0000021044658221846FFF766F801462046EA
:1012C000BDE81040FFF7B4BF38B50C4605465822BC
:1012D00000212046FFF758F82846002100F012F8B8
:1012E000431C05460CD0636843F401432146636008
:1012F000FFF79EFF04462846FFF726FF204638BD2D
:101300000446FBE72DE9F0432F4D97B080460E468B
:10131000002402E00134142C50D055F8343001334D
:10132000F8D106F42063B3F5206FE94639D0C6F34F
:101330000047B20740F2016348BF47F002071E4270
:1013400018BF47F00407330748BF27F0040740469B
:1013500048BF47F00807CDF8008007F0B1FB012631
:10136000CDE9017030464946ABBE0646002E09DB8A
:1013700005EBC403002245F834605A60204617B0DC
:10138000BDE8F08307F0C8F8132504460027284677
:101390003946ABBE054625603446204617B0BDE849
:1013A000F08349464046FFF78FFF0130BFD007F07A
:1013B000B3F8112303604FF0FF34DFE707F0ACF818
:1013C00018230360F7E700BFDC0300200EB400B56C
:1013D0000199FFF797FF5DF804EB03B0704700BF7A
:1013E0002DE9F043074683B03B4888460021164666
:1013F000FFF788FF0021044632463846FEF7C4FF57
:10140000611C58D0354B186810B1036A002B55D0B9
:10141000132C40D8324B53F8342001323BD003EB2D
:10142000C4090C2528464946ABBE05466A1C35D082
:10143000032D3DDD033DB5423ADD04220DEB0201F3
:101440002046FFF74DFD032832DD9DF80430532B75
:101450002ED19DF80530482B2AD19DF80630462B19
:1014600026D19DF80730422B22D101224146204649
:10147000FFF77CFD00281BDB324639462046FFF78C
:101480002FFD05462046FFF75FFE6B1C19D028464E
:1014900003B0BDE8F0834FF00009C2E707F03CF865
:1014A00013260546002730463946ABBE06462E6059
:1014B0002046FFF749FE4FF0FF35E8E7FFF7CCF88D
:1014C000A6E707F029F813260446002730463946D8
:1014D000ABBE06462660DAE7241201082C01002084
:1014E000DC03002010B50E4C6068002882B001DBE0
:1014F00002B010BD0021012201A8C4E90112FFF7CA
:101500006FFF002809DD9DF8043003F0010003F0AF
:101510000203C4E9010302B010BD606802B010BD4F
:101520007C01002010B50E4CA068002882B001DBC1
:1015300002B010BD0021012201A8C4E90112FFF789
:101540004FFF002809DD9DF8040000F0010300F0C2
:101550000200C4E9013002B010BDA06802B010BDA5
:101560007C0100202DE9F04784B0444F019703230C
:10157000002403934FF0010801AE02944046314627
:10158000ABBE80463E4D2346C5F8A4804FF0FF32E7
:1015900045F833200133142BFAD13A4CA368002BC1
:1015A00056DB83B9D5F8A820013209BFD5F8A420AD
:1015B000D5F8A420D5F8AC10C5F8A810C5E90023CB
:1015C00004B0BDE8F0874FF00309042301974FF002
:1015D0000108CDF80C90029340463146ABBE8246DE
:1015E00008230197C5F8ACA0CDF80C9002934046B3
:1015F0003146ABBE0646C5F8A860013608BFD5F82F
:10160000AC20A36808BFC5F8A8200021D5F8A42005
:101610008B42C5E900210FDA01226846C4E90112B4
:10162000FFF7DEFE002825DD9DF8003003F0010203
:1016300003F00203C4E90123002BC1D0D5E92A211C
:101640000023C5E90213C5E9042304B0BDE8F0870F
:10165000002101226846C4E90112FFF7C1FE0028FB
:101660000ADD9DF8003003F0010203F0020362601E
:10167000A36096E7A368DFE7A36892E73C1201083E
:10168000DC0300207C01002008B506F045FF58234C
:1016900003604FF0FF3008BDF0B583B00E2400901A
:1016A00007F00EFA01906D4620462946ABBE04466F
:1016B000631C18BF002402D0204603B0F0BD06F022
:1016C0002BFF13260546002730463946ABBE06469B
:1016D00020462E6003B0F0BDF0B50D4650B1044673
:1016E0001126002730463946ABBE0646F317C4E93B
:1016F0000063A76015B10023C5E900330020F0BDE9
:1017000030B51024002520462946ABBE04462046AD
:1017100030BD00BF70B5044610250026284631466E
:10172000ABBE05461CB1C4E90056C4E902662846B2
:1017300070BD00BF164B1B6870B505460BB11A6A29
:10174000E2B1132D1FD8134B53F8352001321AD0B4
:10175000092403EBC50520462946ABBE0446012CEF
:1017600020460AD006F0D8FE132504460026284657
:101770003146ABBE05462560002070BD1846FEF719
:101780006BFF132DDFD906F0C7FE09230360F3E7D3
:101790002C010020DC030020F0B583B0C0B1009024
:1017A00007F08EF9122401906D4620462946ABBE03
:1017B0000446631C25460FD0FF2C06D82CB16D00C3
:1017C000C5F3072301D0A342F9D1284603B0F0BDE9
:1017D0000125284603B0F0BD06F09EFE1326044600
:1017E000002730463946ABBE06462660EDE700BF0F
:1017F000F0B585B00C46009007F062F9034620462C
:10180000CDE9013407F05CF90F2403906D462046C2
:101810002946ABBE0446631C06D0003C18BF012419
:101820006442204605B0F0BD06F076FE132605465C
:10183000002730463946ABBE064620462E6005B02E
:10184000F0BD00BF10B5044603F0A4FE2043C0B2B3
:10185000003818BF012010BD08B503F05FFB013848
:1018600018BF0120400008BD2DE9F041ADF5007D15
:101870000D4616461F4603F051FB012833D1AB0736
:1018800037D07B1EDBB247B3013305EB432703F0B0
:1018900045FB0128B046044606F1010623D1034664
:1018A00041464FF40072684603F0B4FFE0B904F01B
:1018B0001BF8804603F0DEFA0128FBD0022813D083
:1018C000B8F1000F10D128464FF40072694605F5B3
:1018D000007507F027F8BD42D9D1002420460DF548
:1018E000007DBDE8F081032420460DF5007DBDE8B4
:1018F000F08104463B464FF400723146284603F01F
:1019000089FF0028F0D103F0EFFF054603F0B2FA9B
:101910000128FBD00228E7D02C1E18BF0124204646
:101920000DF5007DBDE8F0812DE9F041ADF5007DBC
:101930000D4616461F4603F0F1FA012833D1AB07D6
:1019400037D07B1EDBB247B3013305EB43274FF49F
:1019500000722946684606F0E5FF03F0DFFA012829
:10196000B046044606F101061DD1034641464FF438
:101970000072684604F024F9B0B904F0ABF980466F
:1019800003F078FA0128FBD002280DD0B8F1000F3F
:101990000AD105F50075BD42D9D1002420460DF5C8
:1019A000007DBDE8F081032420460DF5007DBDE8F3
:1019B000F08104463B464FF400723146284604F05D
:1019C000FFF80028F0D104F085F9054603F052FA3B
:1019D0000128FBD00228E7D02C1E18BF0124204686
:1019E0000DF5007DBDE8F0810020704700207047B4
:1019F000016879B10A4601E03A2B05D012F8013BA3
:101A0000202BF9D8002070470B78302B02D10231FF
:101A10008A4202D04FF0FF3070470260F2E700BF09
:101A200038B50D4640B1036804462BB11A781AB197
:101A30008188DA88914203D0092000232B6038BDC9
:101A40005878FFF709FF10F00100F5D12368F5E79A
:101A500038B5C3780BB9002038BD00F13005C26A33
:101A60000446012340782946FFF75EFF80B9E16A0A
:101A7000236AA269E070CB1A9342ECD2A378022BBE
:101A8000E9D10A44607801232946FFF74DFFE2E7D8
:101A9000012038BDF8B505460C46FFF7D9FF30BB2D
:101AA0006B69A11E023B99423BBF6B89AE6A064639
:101AB00001FB036605F13007EE624FF4007200216E
:101AC0003846FEF761FC6B891C466BB1002402E0CE
:101AD00001349C4208D20123687832193946FFF755
:101AE00023FF6B890028F3D0E01A18BF0120F8BD4E
:101AF00030B5421E00F10A044FF0000E2E2507E01B
:101B000001EB0E0C0EF1010E8CF80930944212D04C
:101B1000944612F8013F202BACF1070CF6D0052BB0
:101B200008BFE5238445EBD101EB0E0C0EF1010E4D
:101B30008CF80950E4E78E4400238EF80930C37A0C
:101B40000B72C3690B60C38ACB80038B8B8030BD63
:101B500070B5C37804465BB92378032B23D00022E9
:101B600060781146FFF740FF003818BF012070BDB4
:101B700000F13005C26A407801232946FFF7D4FE00
:101B8000002835D1E16A236AA269E070CB1A93423A
:101B9000E2D2A378022BDFD10A44607801232946E0
:101BA000FFF7C2FED8E72579012DD8D104F1300620
:101BB0004FF4007200213046FEF7E6FB0D4A226327
:101BC000E268C4F81C22E26920690B4BC4F81432A5
:101BD0004AF655210132A4F82E122B46C4F81802F9
:101BE000E26260783146FFF79FFE00232371B6E77B
:101BF000012070BD5252614172724161C26A8A42D3
:101C000001D10020704770B5C37804460D4600F13D
:101C100030065BB9607801232A463146FFF724FE7F
:101C200010B101204FF0FF35E56270BD407801230F
:101C30003146FFF779FE80B9E16A236AA269E07054
:101C4000CB1A9342E6D2A378022BE3D10A44607800
:101C500031460123FFF768FEDCE7012070BD00BFBD
:101C60002DE9F0470678022E04460D46174621D08E
:101C7000032E0CD0012E33D1016A05EB550801EB80
:101C80005821FFF7BBFF70B30120BDE8F087016A60
:101C900001EBD511FFF7B2FF0028F5D1AD0004F13B
:101CA000300205F4FE750121535967F31B035351AC
:101CB000E17012E0016A01EB1521FFF79FFF002898
:101CC000E2D16D0004F1300305F4FF7559195F5539
:101CD000C7F3072201234A70E3700020BDE8F087B4
:101CE0000220BDE8F08708F10109EB07C8F30808F6
:101CF00004F1300AF9B24FEA592215D51AF8083022
:101D000003F00F0343EA01130AF80830216AE67072
:101D100011442046FFF772FF0028B5D1C9F308012E
:101D20005144C7F3071314E00AF80810216AE6705B
:101D300011442046FFF762FF0028A5D1C9F3080926
:101D4000C7F303221AF8093023F00F030AEB090145
:101D5000134301220B70E270BFE700BF012919D9BC
:101D6000F8B5436999420C46054611D20378022B17
:101D700021D0032B10D0012B0AD1016A04EB5407A8
:101D800001EB5721FFF73AFF10B34FF0FF30F8BDDA
:101D90000120F8BD01207047016A01EBD411FFF763
:101DA0002DFF0028F1D1A40004F4FE742544286B13
:101DB00020F07040F8BD016A01EB1421FFF71EFF0F
:101DC0000028E2D1630003F4FF732B44188EF8BDA2
:101DD000C7F30803296A01372B4401EB5721284632
:101DE00093F83060FFF70AFF0028CED1C7F3080749
:101DF0002F4497F8303046EA0320E3074CBF000930
:101E0000C0F30B00F8BD00BF816838B5002305683A
:101E10000361044629B92B78022B18D96B6AB3B138
:101E200019466B89FBB9284605E001280DD96B6975
:101E300098420AD22068FFF791FF431C0146F4D173
:101E4000012038BD0023C4E90513022038BD2B89C9
:101E5000002BFAD06B6AC4E90513002BF5D030359E
:101E6000E561002038BD6A69881E023A9042E9D2D5
:101E7000AA6A00FB0323EEE70129F8B505680E46C0
:101E800028D96B698B4225D90746114622BB2846C3
:101E900011E0FFF7E5FEF0B9D5E90432911E8B425F
:101EA00005D22979013341F0010129712B61A24248
:101EB0001FD9386826463146FFF750FF04460022F6
:101EC00031462846ACB1012C04D0631C13D06B6999
:101ED0009E42DED30220F8BD012AFBD09342F9D9FD
:101EE0004FF0FF322846FFF7BBFE0028F3D13868D9
:101EF000E1E70020F8BD0120F8BD00BF2DE9F04169
:101F000007680646884649BBD7E90352EDB90AB3CC
:101F10007B6901252C4606E0012812D0013053D000
:101F2000AC4217D07B6901349C4202D3012D11D001
:101F3000022430682146FFF711FF0028ECD1012C64
:101F400047D801242046BDE8F0817B69AB42DED949
:101F5000002ADFD100242046BDE8F0813846FFF793
:101F6000FDFE01280446ECD9421C2DD07B6983423A
:101F7000F1D83A69002AEDD008F10104A34298BFD4
:101F8000022430682146FFF7E9FE0128D9D0431C1E
:101F90001AD07B691A4630B1FD68012D04D9AB42D5
:101FA00098BF4546B6E7ACB94546B3E7B8F1010F6F
:101FB000C7D07B699845C4D2224641463846FFF7D0
:101FC0004FFEA0B10128BCD14FF0FF342046BDE840
:101FD000F0817A69A242B4D94FF0FF3221463846E7
:101FE000FFF73EFE0028EDD1B8F1000FDED1D7E9B2
:101FF0000423023B9A42FC6001D8013A3A613B79E2
:1020000043F001033B71A6E72DE9F04383690569BD
:1020100083B0002B4BD02035B5F5001F47D2C5F358
:10202000080806680446B8F1000F07D03036464469
:102030002561E661002003B0BDE8F0830F464169E9
:102040000133836169B37389013B13EA5529EDD1EB
:102050003046FFF783FE012801462CD9421C2CD0C4
:102060007369834211D807B361692046FFF746FFC1
:10207000014620B301281ED0431C1ED001903046DB
:10208000FFF708FDC8B9736901996161023B023924
:10209000994203D27289B36A01FB0239C4F81890DD
:1020A000C4E73389B3EB551FC0D80023A3610420D4
:1020B00003B0BDE8F0830220BDE70120BBE70720A5
:1020C000B9E700BF2DE9F84FD0F8009004460E465E
:1020D00011F8013B2F2BFAD05C2BF8D00023A36022
:1020E00033781F2B40F2DB8004F120074FF02038BB
:1020F000C7F80480C7F80080C7F807803378202B22
:102100001ED900254FF0080C01202A462F2B78D02D
:102110005C2B76D02E2B16D0654511D2802B57D94B
:102120009F2B58D903F12001C9B21C2953D9634907
:10213000222203E011F8012F002A3FD09342F9D167
:102140000620BDE8F88FBCF10B0FF9D00246082538
:102150004FF00B0CB35C202B02F10100D6D80644E3
:1021600094F820202568E52A04BF052284F8202061
:10217000202B8CBF002301239B0084F82B302046AA
:10218000FFF742FE0028DCD105F1300AD4F818B080
:10219000EB6A9B4543D02846FFF75AFC0028D0D174
:1021A000687801235A465146FFF75EFB002834D079
:1021B0004FF0FF33EB620120BDE8F88FA3F161021D
:1021C000192A9CBF203BDBB27B5502460135C1E793
:1021D0003A492222B2E7315C3F29B1D97E2903D99D
:1021E00081F080007C28ABD8BCF1080F0CBF072021
:1021F0000A20A842A4D97B556B1C0232F95402353F
:10220000A8E7304402782F2A064600F10100F9D0F1
:102210005C2AF7D0002DA3D192E7C5F82CB0E36972
:102220001A78002A42D093F80BE00EF03F02A27118
:10223000D87A10F008000AD000212046FFF7E4FE0B
:102240000028A3D0042894F82B3031D079E703F18B
:102250000B0C394601E0002AEED113F8012B11F8DE
:1022600001BB9C45A2EB0B02F5D1002AE4D194F806
:102270002B305A073FF565AF1EF0100F1AD02269B8
:1022800099F80010C2F3080209F13003134403293E
:102290005A8B04BF9B8A42EA0342A26028E780234C
:1022A00084F82B302046BDE8F84FADE594F82B308C
:1022B0005B0701D4052044E7042042E740120108EF
:1022C000F8B5044604202568A76905F1300627B350
:1022D000EB6A9F4207D02846FFF7BAFB00B3002302
:1022E000A361F8BDEF62E3691A7832B3DB7AE52ABD
:1022F00003F03F03A37107D02E2A05D00F2B03D084
:1023000023F02003082B09D100212046FFF77CFE93
:102310000028E4D1A769002FDAD170B90020F8BDF8
:10232000687801233A463146FFF79EFA0028D9D053
:102330004FF0FF33EB620120D1E70420CFE700BF6D
:10234000F8B506680546FFF75FFD0446A0B9AF691A
:10235000F36A9F42304611D1EB691B78E52B1FD001
:1023600001212846E3B1FFF74FFE04460028EED0D6
:10237000042814BF044607242046F8BDFFF768FB75
:1023800004460028F8D1707801233A4606F130015E
:10239000FFF76AFAF8B14FF0FF33F3620124EBE77D
:1023A000A9693046FFF72AFC04460028F6D1E869FF
:1023B00020222146FDF7E8FFEA6905F12003013AF2
:1023C0002B3513F8011B02F8011F9D42F9D101239F
:1023D000F3702046F8BDF762BEE700BF70B54FF05E
:1023E000FF360023B1420446C370C6622FD1B4F851
:1023F0002E224AF655239A4235D194F8302002F124
:102400001803DBB2012B03D9EB2A01D0022070BDE7
:1024100094F86630462B07D194F86730412B03D1EE
:1024200094F86830542B22D004F182021149873489
:1024300000E038B912F8013B11F8010BA242A3EBFE
:102440000000F6D1003818BF0120400070BD0D46D5
:102450000A464078012304F13001FFF705FA20B164
:10246000E662042070BD032070BDE562BFE7002076
:1024700070BD00BF501201082DE9F041002384B067
:102480000B600D461646FFF7B3FA013000F0BA8034
:102490008A4F3C68002C00F0BD802C60237806F049
:1024A000FE0663B16078FFF7D7F9C10707D416B10C
:1024B000420700F1AB80002004B0BDE8F0810020AD
:1024C0002080FFF7BFF9C30700F1918016B14507DF
:1024D00000F19C8000212046FFF780FF02286BD08E
:1024E000042800F09980012898BF00267BD8B4F812
:1024F0003B30B3F5007F76D1B4F8461001B9616D79
:1025000094F84020A161531E012BA2706BD894F85F
:102510003D306381002B66D0581E184263D1B4F859
:102520004150258128075ED1B4F8430000B9206DE1
:10253000B4F83EE0BEF1000F55D001FB02F20EEB05
:10254000151C944460454ED3A0EB0C009842B0FBA0
:10255000F3F848D35A4B984545D80EEB06004FF692
:10256000F57EF0450CEB060308F1020C69D840F645
:10257000F57EF045E661A362C4F814C020624DD830
:102580008DB30CF00103104403F2FF130CEB4C026B
:1025900003EB5203B1EB532F606224D34FF0FF33B0
:1025A000C4E90333802222710122BB8822700133E7
:1025B0009BB2BB80E3807EE76D4604F5F77304F2BF
:1025C0002E2069461A7902B19A6841F8042B10331B
:1025D0008342F7D155F8046B032066B904AB9D42E2
:1025E000F8D1042818D00D2004B0BDE8F0810320F4
:1025F00004B0BDE8F08131462046FFF7EFFE012828
:10260000ECD874E70B2004B0BDE8F0810A2004B0D8
:10261000BDE8F0810C20E7E70120E5E7002DE2D0DE
:102620004FEA4C0303F2FF130244B1EB532F6262F3
:10263000D9D380224FF0FF332271C4E90333022241
:10264000B3E7A362B4F85A3020622B43C4F814C035
:10265000E661C8D14FEA8C0303F2FF13E26D6262B8
:10266000B1EB532FBFD34FF0FF33C4E90333B4F8BA
:1026700060308022012B227101D0032295E7711C6A
:102680002046FFF7BBFA0028F7D1B4F82E122071CC
:102690004AF655229142F0D1226B0A4B9A42ECD174
:1026A00003F1FF53D4F8142203F5005320339A4268
:1026B000E3D1D4E98632C4E90323DEE78C040020A9
:1026C000F5FFFF0F5252614110B584B014460190DE
:1026D00003A800910391FFF78BF9013014D00C4A45
:1026E00013680BB100211970019B0BB10021197007
:1026F000136014B9204604B010BD002201A9684639
:10270000FFF7BAFE04B010BD0B2004B010BD00BF2F
:102710008C0400202DE9F0478EB00191002800F0D4
:10272000A48002F03F07164604463A4602A901A8D3
:10273000FFF7A2FE054628B10023236028460EB00D
:10274000BDE8F0870023DDF808808DF812000199BC
:102750000A9303A8CDF80C80FFF7B4FC06F01C0325
:10276000B8BB9DF93720002AC0F284809DF812A0E2
:10277000DDF8289093B31AF0110F7DD1730700F1A3
:102780008E80300732D598F80030B9F81A60032BE4
:1027900004BFB9F8143046EA0346FFF727F92023AF
:1027A00089F80B300023A9F81A30C9F80E0098F800
:1027B0000020032A08BFA9F8143000220123C9F819
:1027C0001C2088F80330002E40F08B8047F0400733
:1027D0000CE00BB1042853D00546ADE71AF0100FFA
:1027E0004CD1B10702D51AF0010F45D1D8F82C30E1
:1027F000C4E9083998F80030B9F81A60032B04BF0F
:10280000B9F8143046EA0346A660D9F81C90B8F827
:102810000630C4F80C90002104F1280A4FF400722D
:10282000C4F80080A38027746174E161616150463F
:10283000FDF7AAFDBA0681D5B9F1000F3FF47EAFCE
:10284000B8F80A70C4F814907F02B945314628D907
:102850002068FFF783FA01280646A9EB07091BD970
:10286000431CF2D1A061012566E7092528460EB078
:10287000BDE8F08706255FE707255DE704255BE7F0
:1028800003A8FFF75DFD47F008070028A4D19DF8D5
:1028900012A0DDF8289076E7A06102254CE7082514
:1028A0004AE7C9F30803A661002B3FF447AFD8F805
:1028B0001430023E023B9E42EFD2B8F80A20D8F80C
:1028C000283006FB0232002AE7D002EB5922E261EF
:1028D00098F8010051460123FEF7C6FF0028C2D137
:1028E0002CE703A831468DF812A0CDF82890D8F82F
:1028F0002CA0FFF7C1FA00287FF46EAF5146404686
:10290000FFF77CF9013EC8F80C6000283FF45EAF89
:10291000A9E700BF2DE9F04F1E4685B00023884689
:10292000336003A905469146FFF77AF8002843D1A2
:10293000687C002841D195F810A01AF0010A00F037
:1029400091806969EF687F1A4F4528BF4F46002F75
:1029500033D00090B346C1F30802002A43D1039E4E
:102960007389013B13EA51232AD0A869726902389E
:10297000023A904231D27189B26A01FB002262B3FD
:10298000B7F5007F03EB02094BD2EA694A456BD0E9
:1029900095F91030002B05F1280468DB70780123CD
:1029A0004A462146FEF760FF00284ED16A69C5F805
:1029B0001C90C2F3080218E0092005B0BDE8F08FB2
:1029C000002948D1A868012807D9421C3DD0726966
:1029D000A861023A02389042CDD3022420466C749A
:1029E00005B0BDE8F08F05F12804A318C2F5007406
:1029F000BC4228BF3C4608F1FF32181913F8011BEE
:102A000002F8011F8342F9D1DBF8003069692344E1
:102A100021443F1BCBF80030A04469619BD1009852
:102A2000CBE703EB57228A424FEA572488BFCC1AE0
:102A30007078E3B24A464146FEF716FF28B995F989
:102A40001030002B1FDB6402DEE7012350466B745D
:102A500005B0BDE8F08FA96928680193FFF77EF9FA
:102A6000019BB0E70720A8E705F128049EE77078EE
:102A700001232146FEF758FF0028E6D12B7C03F006
:102A80007F032B748AE7EB69A3EB0903A342DAD235
:102A900008EB4323013B05F1280205F50A7012F803
:102AA000011B03F8011F8242F9D1CCE72DE9F04F59
:102AB000984685B000230C46C8F8003003A90546A7
:102AC0001746FEF7ADFF00284FD195F81190B9F1E8
:102AD000000F4CD12A7C910740F1C9806B69FB4201
:102AE00028BFDF43002F70D0C3F30802002A42D171
:102AF000DDF80CA0BAF80A60013E16EA53260FD1A1
:102B0000002B40F0AC80A868002800F098800128D5
:102B10005FD0431C00F09B80AB68A861002B7BD08A
:102B200095F91030002B7CDBAB69DAF81420023BFE
:102B3000023A93424DD2BAF80A10DAF8282001FB83
:102B40000322002A45D0B7F5007F324449D2E96913
:102B50006B69914203D0E968994200F28B8005F1DC
:102B60002806EA61C3F3080207E04FF00909484666
:102B700005B0BDE8F08F05F12806C2F5007BBB4526
:102B800002F1FF3228BFBB4606EB020C214604EBE4
:102B90000B0211F8013B0CF8013F9142F9D12B7C5B
:102BA00063F07F032B741446D8F800206B695A44F5
:102BB000C8F80020EA685B449A4238BF1A46B7EB6F
:102BC0000B076B61EA608FD12A7C42F040022A74C5
:102BD000CDE74FF00209484685F8119005B0BDE8F1
:102BE000F08F06EB57238B424FEA572B88BFA1EBA0
:102BF000060B9AF8010001925FFA8BF32146FEF76B
:102C000093FE20BBEB69019A9B1A5B4540D304EB12
:102C10004B224FEA4B2BC6E795F91030A860002BEA
:102C200082DAEA699AF80100012305F12801FEF72A
:102C30007BFE60B92B7C03F07F032B7474E7314675
:102C40002846FFF75BF900287FF461AFBCE74FF03F
:102C50000109484685F8119005B0BDE8F08FA969D3
:102C60002846FFF74BF900287FF451AFACE74FF04F
:102C700007097CE705F128069AF801000192012373
:102C80003146FEF7F1FD0028E1D16B69019A68E752
:102C900004EB432305F1270203F5007013F8011B31
:102CA00002F8011F8342F9D12B7C03F07F032B74C0
:102CB000ADE700BF08B3036870B504462BB11A78BE
:102CC0001AB18188DA88914201D0092070BD587804
:102CD000FEF7C2FDC207F8D4237C13F04000F5D004
:102CE0001B0626680BD4FEF781FE216A0546304696
:102CF000FEF784FF88B1012070BD09207047E269AA
:102D00007078012304F12801FEF70EFE0028F2D1AD
:102D1000237C03F07F032374E5E7636ADA7A42F0E9
:102D20002002DA72A26821689A76C2F30720D87668
:102D30000978032903D1120C1A75120A5A75E26830
:102D4000DA610022C3F816505A820123F37030462C
:102D5000FEF7FEFE237C23F04003237470BD00BF0A
:102D600010B582B00446FFF7A5FF08B102B010BD50
:102D700001A92046FEF754FE10B9206002B010BD34
:102D8000092002B010BD00BF2DE9F04383B00E460C
:102D900001A90446FEF744FE98B994F81180B8F1F1
:102DA000000F0AD1E2686369B24203D2217C88072E
:102DB0000DD41646002161615EB9404603B0BDE8FE
:102DC000F0834FF00908404603B0BDE8F083C4F833
:102DD0001480DDF80490B9F80A707F0213BBA5686F
:102DE00075B93AE0FFF78AF80546002800F08C80B4
:102DF0006B1C2DD0012D37D9D9F81430AB4233D903
:102E00006369A561B74269D2227C3B449207294697
:102E100020466361A6EB0706E4D42068FEF79EFF18
:102E20000546E5E7013B711EB3FBF7F0B1FBF7F197
:102E30008142D4D37942A5690B406361002D3FD113
:102E40009A42BAD2227CE36042F040032374B4E792
:102E50004FF0010884F81180AFE729462046FFF7BC
:102E60004DF80128054604D14FF0020884F811807E
:102E7000A3E7411CECD06369A060A0610028C1D128
:102E8000E1689942C3F3080204D2E360237C43F073
:102E900040032374002A90D0E269AA428DD094F9AD
:102EA0001030019F002B04F128060BDB78783146A7
:102EB00001232A46FEF7D8FC0028C9D1E5617CE74A
:102EC000F61A9FE7787801233146FEF72DFD00289A
:102ED000BED1237C03F07F032374E7E73344C6F3BA
:102EE0000802636192B1D9F81420023D023A95427A
:102EF000BAD2B9F80A10D9F8282005FB0125002D0F
:102F0000B2D005EB5625BBE76369B9E71546B7E7CD
:102F100030B585B0019168B30446002203A901A829
:102F2000FFF7AAFA18B10023236005B030BD039D56
:102F3000019925602046FFF7C5F8B8B994F92B3000
:102F4000002B0BDBA379DB0617D52978E26903296F
:102F5000538B04BF928A43EA0243A360EB88A380A9
:102F60002046FEF751FF0028DFD0DCE7042808BF29
:102F70000520D8E7092005B030BD0520D3E700BF04
:102F800098B1036810B504462BB11A781AB181883C
:102F9000DA88914201D0092010BD5878FEF75CFC18
:102FA00010F00100F7D1206010BD0920704700BF6C
:102FB00058B338B50368044633B11A7822B1DA88B9
:102FC0000D468188914201D0092038BD5878FEF71E
:102FD00043FCC307F8D420469DB1FFF771F910F008
:102FE000FB03F2D16B72A3691BB1E0692946FEF7BE
:102FF0007FFD00212046FFF707F8042808BF0020C6
:1030000038BDBDE83840FEF7FFBE0920704700BF5D
:1030100030B58FB00D460190002203A901A8FFF73B
:103020002BFA044610B120460FB030BD019903A819
:10303000FFF748F804460028F5D19DF93730002BFA
:103040000ADB002DEFD0099B6872002BEBD00A98A9
:103050002946FEF74DFDE6E70624E4E72DE9F047B3
:1030600084B088460190144603A9002201A8FFF706
:1030700003FA074640B9039D2560D5E90436B21E20
:10308000934205D8C8F80030384604B0BDE8F08750
:103090002B78012B1ED0296A04468146ACB3022B43
:1030A00005EB04022BD0126B32F0704208BF09F11D
:1030B00001090434013EC4F30804EFD1C8F80090BC
:1030C0002B79C5F8109043F0010338462B7104B0FA
:1030D000BDE8F0870224814607E0012820D008B926
:1030E00009F101096B69A342E8D921462846FEF798
:1030F00035FE431C04F10104EFD10127DEE7128EF7
:103100000AB909F101090234D4E7284601F1010A9C
:10311000FEF774FD10B92B785146C0E70746CDE79E
:103120000227CBE770B540B1036804462BB11A788B
:103130001AB18188DA88914202D00925284670BDEB
:103140005878FEF789FBC007F7D4657C002DF5D1D0
:10315000237C990722D56369E2689342EED2266800
:10316000F3B9A1682A462046FEF786FEA56063698A
:10317000E360237C43F04003237400283AD11B060C
:10318000DCD5E2697078012304F12801FEF7CCFB5D
:1031900030BB237C03F07F032374CFE70725CDE703
:1031A000A1693046FEF7DAFD421C13D0012808D091
:1031B0007369834217D90146A2692046FEF75CFE77
:1031C000D5E7237C6269E26043F040030225237463
:1031D0006574B3E7237C6269E26043F040032374C3
:1031E00001256574AAE7237C6269E26043F040032D
:1031F0002374C4E705466574A0E700BFF0B59BB033
:103200000222019003A901A8FFF736F908B11BB00B
:10321000F0BD039C01990494002304A80B93FEF7CE
:1032200051FF0028F3D19DF93B30002B1DDB9DF8A9
:103230001630DA0729D422780B9F049E7D8B032A4F
:1032400004BFBA8A45EA0245DB0610D40A99304623
:10325000FEF7D4FC0028DAD1E5233B700123F3709C
:10326000ADB92046FEF774FCD1E70620CFE70FA8E2
:103270000F941195FEF7C8FD0028C8D10FA8FFF7DD
:103280001FF810B10428C2D1E0E70720BFE70246CB
:10329000294604A8FEF7F0FD0028B8D1E1E700BFF9
:1032A0002DE9F0478EB00222019002A901A8FFF794
:1032B000E3F8044618B120460EB0BDE8F087DDE91A
:1032C0000116054603A80396FEF7FCFE0446B8B1B6
:1032D0000428F0D1294603A8FEF710FE73895B028B
:1032E0000546069388B101287DD0431C11D1FEF715
:1032F0007DFB01240022294603A8FEF7BDFDDAE785
:10330000082420460EB0BDE8F0870724FEF76EFBC8
:10331000F0E73046FEF79CFB0446FEF767FB0746E6
:10332000002CE6D129463046FEF7B4FB0028E0D158
:103330003078C6F846704FF02032326372632E2127
:10334000C6F837205FFA85F81022C5F3072903284D
:1033500006F1300386F8301086F83B2086F84A8064
:1033600086F84B9041D05868D3F808C0D3F80CE0E9
:10337000346B3465C6F85CE07065C6F858C0059AD1
:10338000D3F818C01C695869D3F81CE0C6F868C0A7
:1033900086F86A20C2F30722C6F86CE034667066CD
:1033A00086F8511086F86B200123F37003A8FEF70E
:1033B000C7FF044600289DD10A9BC3F8167083F806
:1033C0001A8083F81B903278032A03D12D0C2A0A25
:1033D0001D755A7510210122D9723046F270FEF720
:1033E000B7FB044667E7022490E725FA02F286F865
:1033F0004420120A86F84520D3F804E0D3F808C028
:10340000D3F80CA0059A346B3465C6F85CA0C6F8F6
:1034100054E0C6F858C0D3F814E0D3F818C01C69BB
:10342000D3F81CA0C6F864E0100CC6F868C086F893
:10343000640086F86A20000AC2F30722C6F86CA06E
:10344000346686F8511086F86B2086F86500ABE785
:1034500070B5A2B0019068460091FEF7C9FA022249
:1034600003A901A8FFF708F808B122B070BD039CBA
:1034700001990C940CA8FEF725FE0028F5D19DF8C3
:103480005B3013F0A00F7AD1139D28686968AA6891
:10349000EB680DF1100EAEE80F0028696969AA69A2
:1034A000EB690DF1300CAEE80F00BCE80F000DF138
:1034B0005C0EAEE80F00BCE80F00AEE80F009CE821
:1034C00007008EE80700009917A8FEF7FBFD00280B
:1034D00057D00428C9D117A8FEF732FF0028C4D15D
:1034E0001E9BDDF81D20C3F80D20DDF82120C3F858
:1034F0001120DDF82520C3F81520BDF82D20DDF8BA
:103500002910A3F81D209DF81B20C3F819109DF861
:103510002F10D977D10658BF42F020020121DA726C
:10352000E170DA7AD2061CD5199E0E9AB24218D0F2
:1035300021785A8B032904BF9B8A42EA03426369BC
:10354000023A023B9A4229D26389A16A02FB031123
:1035500021B32046FEF752FBF0B994F851302E2BE0
:103560001ED00C9E12993046FEF748FBA0B9E5220A
:1035700001232A702046F370FEF7EAFA75E7062069
:1035800073E7199A0E9B9A4201D008206DE71B9AA7
:10359000109B9A42F9D19EE7012066E7022064E77A
:1035A000227884F86A60C6F30723032A84F86B3014
:1035B00005D1360C330A84F8646084F86530012341
:1035C000E370CEE72DE9F041804682B017464E1EEB
:1035D000054600240CE0FFF79DF9019B012B0ED15D
:1035E0009DF8003005F8013B0A2B04F1010411D0CD
:1035F000B44201AB4FF0010269463846EBDB0023D1
:103600002B701CB1404602B0BDE8F081204602B0EC
:10361000BDE8F08100232B70F4E700BF30B597B010
:103620000C4640220021054605A8FCF7ADFE01220C
:1036300001AB05A92046CDE9032202948DF8145070
:10364000FFF734FA30B9039A019B9A4202D10498E9
:1036500017B030BD4FF0FF30FAE700BF30B5054678
:1036600097B00C464822002103A8FCF78DFE2B786A
:103670000294002B34D0002106E00134CDE903246C
:10368000114615F8013FBBB101F158020DEB0200E4
:103690004A1C01F10102F4D03B29049C00F8443C8F
:1036A000EBD1029801AB05A9FFF700FA019A3C3A69
:1036B00018BF4FF0FF32E0E74B1C0DD00A460298CE
:1036C00001AB05A9FFF7F2F930B9039A019B9A42C1
:1036D00002D1049817B030BD4FF0FF3017B030BDA5
:1036E0001946EBE70EB42DE9F04FA0B029AE07461E
:1036F00056F8045B2C46002148220DA8FCF744FE36
:1037000014F8013B0D990C970296002B58D004AE8B
:10371000252B40F05B816B78302B00F08F812D2BB7
:1037200000F09081023500272A2B40F07381029A25
:1037300015F8013B1468101D029003F0DF024C2ABB
:1037400004BF15F8013B47F00407002B38D0A3F164
:103750006102192A9ABFA3F12000C0B21846A0F155
:103760004202162A18D8DFE812F07400580042000E
:103770001700170017001700170017001700170091
:10378000170017007F00170017001700F60017003A
:103790004200170017008A000029C0F227810DEBB4
:1037A00001024C1C3B2C0E9F82F83C3045DC01375B
:1037B000CDE90D4721462C4614F8013B002BA7D13B
:1037C0000029C0F230820A460C9803AB0FA9FFF71C
:1037D0006DF9002840F027820D9A039B9A4240F031
:1037E00022820E9820B0BDE8F04F03B07047029AD5
:1037F000944617F0040F5CF804EB40F06281442813
:1038000040F01A82BEF1000FCDF808C07246C0F237
:1038100062814FF0000C0A203DE0029A002902F17B
:1038200004030293C0F2E2800DEB01034C1C12680A
:103830000E9F83F83C203B2CB9DD03AB22460C984D
:103840000FA9FFF733F9039B1C1B18BF4FF0FF3480
:10385000ADE77A0740F15281029850F8042B0290AC
:103860004FF0000C022016E07A0740F13C810298EC
:1038700050F8042B02904FF0000C08200BE0780762
:1038800000F13481029A102002F1040C1268CDF884
:1038900008C04FF0000C782B0CBF4FF0270A4FF0F8
:1038A000070AB6464FF000080197D34603E0202FE1
:1038B00000F04F81B846B2FBF0F900FB1927FBB2CC
:1038C000092F88BF5B44924688BFDBB23033824504
:1038D0000EF8013B4A4608F10107E8D2BB46019FBA
:1038E000BCF1000F05D0EB442D238BF8103008F10C
:1038F000020B17F0010F0CBF4FF020084FF03008FB
:10390000BB0740F12B81DA46B34407E009F101031C
:10391000CDE90D7339465E4500F0F38001F1800377
:1039200000296B4401F101070BF1FF3BF3DB9BF82E
:103930000020DDF8389003F8442C3B2FE6DD03AB84
:103940003A460C980FA9FFF7B1F8039BDF1B18BF8D
:103950004FF0FF37DAE7029AD2F800A09AF8003069
:10396000043207F002070292002B6FD052464FF04C
:10397000000912F8010FCC4609F101090028F8D11D
:103980000CF102084FB914E10BF10103CDE90D73FD
:1039900039461AF8013F002B5ED001F18002002960
:1039A0006A4401F10107F4DB3B2FDDF838B002F87F
:1039B000443CE9DD03AB3A460C980FA9FFF776F8D3
:1039C000039BDF1B18BF4FF0FF37DDE7002915DB36
:1039D0000DEB01024D1C3B2D0E9F82F83C3064DC48
:1039E0000137CDE90D5729462546E4E62B78002B13
:1039F00000F01981252B3FF48EAE6C1C25462B461A
:103A000013F8012B002A3FF4DBAE252A3FF483AEE6
:103A10001D46F4E7A3F13002092A4FF000043FF6F7
:103A20008CAE04EB840403EB440415F8013BA3F1D2
:103A30003002092AA4F13004F3D97EE6AB780127DD
:103A4000033571E6AB78022703356DE6002F00F0F1
:103A5000F58099464FF001084C457FF6ACAE4FF02B
:103A6000200AA14609E00134CDE90D743946C1456B
:103A700008F101037FF69FAE984601F1800300290B
:103A80006B4401F10107F2DB3B2F0E9C03F844ACC1
:103A9000E9DD03AB3A460C980FA9FFF707F8039B43
:103AA000DF1B18BF4FF0FF37DDE703AB2A460C984A
:103AB0000FA9FEF7FBFF039B5D1B18BF4FF0FF35FF
:103AC0008EE74428CDF808C072467FF4A2AEBEF15E
:103AD000000FBFF69EAECEF1000247F008074FF090
:103AE000080C0A20D7E6029A0820CDE6029850F882
:103AF000042B02904FF0000C1020CCE6029A02201A
:103B0000C2E654450AF101077FF655AEA14609E029
:103B10000134CDE90D241146B94507F101033FF405
:103B20004AAE1F4601F1800300296B4401F10102F6
:103B3000F2DB3B290E9C03F8448CE9D10C9803ABD3
:103B40000FA9FEF7B3FF039A3C3A18BF4FF0FF32BC
:103B5000DEE7BB464FF01F08019FC1E6A3450BF10E
:103B6000010967D204F1010A019508E00137CDE9A6
:103B70000D5729464C4509F1010318D0994601F12A
:103B8000800300296B4401F10105F3DB3B2D0E9FFF
:103B900003F8448CEADD03AB2A460C980FA9FEF724
:103BA00085FF039B5D1B18BF4FF0FF35DEE7019DCE
:103BB000AAE64C4547D9C1464FF0200B019508E0D5
:103BC0000137CDE90D5729464C4509F1010318D9B4
:103BD000994601F1800300296B4401F10105F3DBF3
:103BE0003B2D0E9F03F844BCEADD03AB2A460C983C
:103BF0000FA9FEF75BFF039B5D1B18BF4FF0FF355E
:103C0000DEE7A4EB0809444538BF4FF000099AF8F5
:103C10000030019D08F10108C14409F10108002BA1
:103C20007FF4BBAE18E74FF0FF3020B0BDE8F04F97
:103C300003B07047CA4667E60A2025E64FF0010840
:103C4000002CB8D1B7E5C1460CF10308A5E600BFCA
:103C500080B5ADF5127D00AF07F50A73C7F84432A1
:103C600000F044FA032000F0FDFAB74B5B6CB64A53
:103C700043F480435364B54B1B6AB44A43F00103D9
:103C8000136200BFB14B1B6A03F48073002BF9D0A1
:103C900001214FF4801003F0C3F900F0FBFB00F0AA
:103CA000B3FB00F0C7FB00F08DFB00F0D9FB4FF435
:103CB000407002F065FEA64B00221A6000F03EFB49
:103CC00000F05EFB00F02CFBA24BC7F84032D7F8A7
:103CD000403200221A604FF40C7200219E48FCF71B
:103CE00053FB00229D499C48FEF7EEFC03461A4612
:103CF0009B4B1A709A4B1B78002B01D000F050F9A7
:103D0000984B1B681B78DAB2974B1B681B78DBB2A9
:103D10005340DBB2FF2B07D0924B1B6800221A7076
:103D2000914B1B68FF221A708E4B1B681B78DBB20D
:103D30001946D7F8440200F059FC8C4BC7F83C32C6
:103D40003B46D7F83C22D7F84412184600F0B6FBA1
:103D50000346002B1DD0834B1B6800221A70824B38
:103D60001B68FF221A707F4B1B681B78DBB2194659
:103D7000D7F8440200F03AFC3B46D7F83C22D7F88B
:103D80004412184600F09AFB0346002B01D000F0C5
:103D900007F9774B1B68002B2ED0754B1B68013B36
:103DA000734A1360724B1B68002B25D13B461846A3
:103DB000FEF7D6FF3B460222D7F844121846FEF71C
:103DC000A9FC03461A46664B1A706A4B19683846B6
:103DD000D7F83C32684A00F0C7FB3B461846FEF76E
:103DE000BFFF3B460122D7F844121846FEF792FC6B
:103DF00003461A465A4B1A70604B1B68B3F1804F4A
:103E0000C7D25E4B1B68DBB2002BC2D05B4B1B687A
:103E1000012B02D0022B48D095E0584B1B6843F091
:103E20008043564A1360524B1B68002B28D03B46F8
:103E30001846FEF795FF3B460222D7F84412184673
:103E4000FEF768FC03461A46454B1A704C4B19683E
:103E50003846D7F83C32484A00F086FB444B0022F3
:103E60001A603B461846FEF77BFF3B460122D7F817
:103E700044121846FEF74EFC03461A46384B1A7099
:103E8000404B19683846D7F83C323B4A00F02AFBD1
:103E9000D7F83C2238493C4800F0DEFB374B1B6822
:103EA00043F04043354A13604DE0344B1B6843F008
:103EB0008043324A13603B461846FEF751FF294BB8
:103EC0001B681B78DBB21946D7F8440200F08EFB62
:103ED0003B46D7F83C22D7F84412184600F0EEFAD9
:103EE0000346002B1DD01F4B1B6800221A701E4B6F
:103EF0001B68FF221A701B4B1B681B78DBB219462C
:103F0000D7F8440200F072FB3B46D7F83C22D7F8C2
:103F10004412184600F0D2FA0346002B01D000F0FC
:103F20003FF8144B19683846D7F83C32124A00F073
:103F3000D9FAD7F83C221049134800F08DFB0F4BFB
:103F400000221A6000BF24E7003802400038014018
:103F500010E000E0A0010020940400207891000807
:103F6000C4060020A8010020AC010020D8080020D1
:103F7000D8010020DC010020D8090020D001002059
:103F8000E0010020D4010020D820002046F6824322
:103F900000FB03F310B100BF013BFCD1704700BF31
:103FA000064A40208021064B506100BF013BFCD1F6
:103FB000034B516100BF013BFCD1F4E7000002401C
:103FC000E8EDD30000B500F0F002002362F3070330
:103FD0000001C0B262F30F2360F3174360F31F6365
:103FE00083B0042243F0083343F004130DEB0201C5
:103FF0002720019302F00EFC03B05DF804FB00BF24
:1040000000B500F0F002002362F307030001C0B224
:1040100062F30F2360F3174360F31F6383B004223E
:1040200043F0093343F004130DEB02012720019301
:1040300002F0F0FB03B05DF804FB00BF70B505466D
:1040400082B003290BD8DFE801F01E1C1A020F4BC7
:10405000019304220DEB0201272002F0DBFB002D6F
:104060000BDD0B4E002404220DEB0201272001344E
:10407000019602F0CFFBA542F5D102B070BD054B11
:10408000E6E7054BE4E7054BE2E700BFDCD84C4828
:104090001C184C489C984C48CCC80C088C880C08C0
:1040A0000378FBB130B5104C83B0054603F0F00146
:1040B000002261F307021B01DBB261F30F2263F3FD
:1040C000174263F31F6242EA040304220DEB02016C
:1040D0002720019302F09EFB15F8013F002BE5D14C
:1040E00003B030BD704700BF0D090D0900B53D4B51
:1040F00083B000BF013BFCD104223B4B01930DEB8D
:104100000201272002F086FB384B00BF013BFCD1A7
:104110000422354B01930DEB0201272002F07AFBBC
:1041200046F6824300BF013BFCD104222E4B019393
:104130000DEB0201272002F06DFB2D4B00BF013B70
:10414000FCD104222B4B01930DEB0201272002F03E
:1041500061FB274B00BF013BFCD10422264B01939E
:104160000DEB0201272002F055FB46F6824300BF0B
:10417000013BFCD10422214B01930DEB02012720CE
:1041800002F048FB46F6824300BF013BFCD104220B
:104190001B4B01930DEB0201272002F03BFB46F67F
:1041A000824300BF013BFCD146F6824300BF013B86
:1041B000FCD10422134B01930DEB0201272002F0E6
:1041C00029FB46F6824300BF013BFCD104220E4B83
:1041D00001930DEB0201272002F01CFB03B05DF8F8
:1041E00004FB00BF643115000C083C388A1E020035
:1041F000143D04000C082C282C288C880C088C8872
:104200000C081C180C086C680C08CCC830B50422CB
:1042100083B0104B01930DEB0201272002F0FAFA54
:104220000D4D642404220DEB02012720019502F0BC
:10423000F1FA013CF6D10422084B01930DEB020187
:10424000272002F0E7FA064B00BF013BFCD103B088
:1042500030BD00BF0C080C082D290D090C081C18D6
:10426000C8622A0070B5DFF8B4C00546BCE80F008C
:104270008CB002AC0FC45CF8043B2360BCE80F00B8
:104280000DF11C0EAEE80F000DEB8503DCF80020ED
:10429000CEF800209C68DE6902F016FD012002F0D5
:1042A0003BFD02F041FD08B90CB070BD6200022375
:1042B00008214FF48000009602F07AFD012002F000
:1042C00089FD154A13689B01FCD5022002F0C4FD4C
:1042D000002002F0D3FD042D09D8012D0CD94FF494
:1042E000A05002F0D5FD4FF4805002F0DBFD0CB081
:1042F000BDE8704002F04AB83DB14FF4805002F082
:10430000C7FD002002F0CEFDF1E7284602F0C0FD17
:10431000284602F0C7FDEAE7003802407C91000819
:1043200000B583B0034B019301A802F033FB03B047
:104330005DF804FB3102000101F01ABF00B5012154
:1043400085B04FF4804002F09BFE0121022002F074
:10435000EDFA022101224FF4406302A802918DF888
:104360000E20ADF80C3003F053FC044B019301A870
:1043700002F010FB05B05DF804FB00BF0700000170
:1043800000B5012185B04FF4804002F079FE042190
:10439000022002F0CBFA102101224FF4006302A8A0
:1043A00002918DF80E20ADF80C3003F031FC044B77
:1043B000019301A802F0EEFA05B05DF804FB00BF1E
:1043C0000A01000100B5012183B0042002F028FE9B
:1043D0000A4B0B4817226946CDE9002302F0DAFBAD
:1043E000084B074808226946CDE9002302F0D2FBBA
:1043F000034A0023536103B05DF804FB000300018E
:10440000000802400103000100B5012183B008202B
:1044100002F006FE4FF47F424FF4407304486946B1
:10442000CDE9002302F0B6FB03B05DF804FB00BF4A
:10443000000C024000B5012183B0102002F0F0FD15
:10444000054B06484FF6FF726946CDE9002302F09E
:10445000A1FB03B05DF804FB000300020010024062
:1044600000B5012183B0084602F0DAFD00214FF4C7
:10447000002002F0F9FDC32240F2013304486946EE
:10448000CDE9002302F086FB03B05DF804FB00BF1A
:104490000000024008B501214FF0805002F0E4FD19
:1044A000012003F02BFC4FF48020012102F0B8FD25
:1044B000BDE80840012003F03DBC00BF30B5154603
:1044C00083B001220446FEF725F908B103B030BDE0
:1044D00001AB4FF4807229462046FEF71BFA03B069
:1044E00030BD00BF70B593F800C0BCF1450F82B07D
:1044F00005460C4616460CD04FF4985303FB04F4C3
:1045000004F5807128461C46FEF73EFCF8B102B067
:1045100070BD5A78582AEFD109B301F1330C03F179
:1045200033029C444FF4807112F8010F944501EB63
:104530000021F9D134341B5D1C02B4F5B85F284664
:1045400028BF4FF4B854FEF71FFC0028DFD101ABA1
:10455000224631462846FEF7DDF902B070BD34240C
:104560004FF48071E7E700BF70B593F800C0BCF16D
:10457000450F82B005460C4616460CD04FF49853B2
:1045800003FB04F404F5807128461C46FEF7FCFB8F
:10459000F8B102B070BD5A78582AEFD109B301F1D1
:1045A000330C03F133029C444FF4807112F8010F75
:1045B000944501EB0021F9D134341B5D1C02B4F5A4
:1045C000B85F284628BF4FF4B854FEF7DDFB00283B
:1045D000DFD101AB224631462846FEF767FA02B02A
:1045E00070BD34244FF48071E7E700BF30B5184B3D
:1045F00004468C4693E8070085B001AB03C323F85B
:10460000022B110C20461970124C01AA432304E01E
:10461000013200F8013B1378B3B1782BF8D1C51CF7
:10462000AE46A4FB0C13DB0803EB8301ACEB4101AA
:1046300030310EF8011D86455FFA83FCF1D1D37845
:1046400003322846002BE8D1037005B030BD00BF0F
:10465000A4910008CDCCCCCC4B7D01F580725BB130
:1046600001EBC30C8B7E083103F01F03614540F85A
:10467000232002F50072F5D1704700BF0000000052
:1046800030B50B4D83B00446012155F8200002F0EF
:10469000C7FC05EB4405074A074B52F824002A8A59
:1046A0006946CDE9002302F075FA03B030BD00BFC2
:1046B000B09100088801002001020001044B054A66
:1046C00003EB400352F820201B8A1383704700BF7E
:1046D000B091000888010020044B054A03EB400319
:1046E00052F820201B8A5383704700BFB091000806
:1046F00088010020054A064B52F8202003EB4003B6
:1047000051691B8A4B405361704700BF88010020EC
:10471000B091000870B50C46012186B005460846E8
:1047200002F07EFC01214FF4804002F0A9FC134806
:1047300000EB85000026012300698DF80C6002A9BA
:104740008DF80F60029302F025FA012C01D006B01B
:1047500070BD3146304602F0E9F84FF4006304A81A
:10476000ADF8143004948DF8164003F051FA044B60
:10477000019301A802F00EF906B070BD8801002077
:10478000060F0F0108B5044B03EB800301211869E4
:1047900002F062FA08BD00BF8801002000B50020C9
:1047A00083B002F09BFF002002F09EFF02F068FF42
:1047B00000214FF4006002F063FC1D480022082134
:1047C00002F06EFA1A480022092102F069FA18482C
:1047D00000220A2102F064FA154800220B2102F09F
:1047E0005FFA134800220C2102F05AFA1148002205
:1047F000022102F055FA4FF47062002369460C481A
:1048000000928DF804308DF8073002F0C3F90423CC
:1048100069460848009302F0BDF94FF480530448FC
:104820000093694602F0B6F903B05DF804FB00BFDF
:1048300000080240000C024000B5012183B00C20AA
:1048400002F0EEFB21480C22082102F029FA1F4851
:104850000C22092102F024FA1C480C220A2102F041
:104860001FFA1A480C220B2102F01AFA0C221146E8
:10487000164802F015FA16480C22022102F010FA2E
:10488000144B12484FF470626946CDE9002302F0E0
:1048900081F9042369460E48009302F07BF94FF436
:1048A000805200236946094800928DF8073002F0D3
:1048B00071F901214FF4006002F0E2FB01214FF495
:1048C000800002F0ADFB03B05DF804FB000802407D
:1048D000000C02400201000110B54FF0FA5190B0F7
:1048E0000446214803F018F900211F4803F0B0F8EE
:1048F0001D4802F0D7FF1AA1D1E900014022CDE9FD
:10490000000103924FF480504FF480624FF48041D5
:10491000CDE907010023069204204FF44032032121
:10492000CDE90932CDE90B01CDE904334FF40002A2
:104930004FF4001369460C480294CDE90D2303F0AF
:1049400047F801220848102103F0FAF80648202110
:1049500003F092F80448012103F07AF810B010BD7A
:1049600000000008802C01405864024010B54FF050
:10497000FA5190B00446224803F0CEF800212048B6
:1049800003F066F81E4802F08DFF1BA1D1E900017B
:104990000023CDE900014FF480424FF480604FF4D2
:1049A0008051CDE90530CDE90823029407914FF4F9
:1049B00000024FF4403404210320CDE90C02CDE97C
:1049C0000333CDE90A414FF4001369460C480E93B6
:1049D00002F0FEFF01220A48102103F0B1F8084856
:1049E000202103F049F80648012103F031F810B006
:1049F00010BD00BFAFF3008000000008802C014014
:104A00005864024010B50D4B5C6B14F0450FFBD0A1
:104A100063070DD414F0010405D140F2FF5002F0F9
:104A20002BFF204610BD012002F026FF012010BD03
:104A3000042002F021FF032010BD00BF002C014024
:104A400030B5534B596983B0002209040D25044643
:104A50004020C3E90202C3E9001518464FF4806103
:104A600000921961019202F04DFE4A4A536B019384
:104A7000019B13F0450FF9D0019B590760D4019DAC
:104A800015F0010556D102F05BFE0190019B0D2B44
:104A900002D0102003B030BD40F2FF5002F0ECFE17
:104AA000284602F053FE0090009B3B48009AC3F357
:104AB0004323104023700028ECD0009B002B49DBDF
:104AC000009B5A0044D4009B9B0045D4009BDD0012
:104AD00044D4009B1C0143D4009B590136D4009B55
:104AE000DA013FD4009B1B023ED4009B5D02D0D470
:104AF000009B9C023AD4009BD90239D4009B1A0334
:104B000038D4009B5B0337D4009B9D0338D4009BB3
:104B1000DC0333D4009B190438D4009B5A0433D4EB
:104B2000009B9B042ED4009B13F0080F14BF1A2087
:104B30000020AFE7012002F09FFE012003B030BD4E
:104B4000042002F099FE032003B030BD0D20A1E740
:104B500009209FE71C209DE70A209BE70B2099E78F
:104B60000C2097E70E2095E70F2093E7112091E79F
:104B700012208FE713208DE714208BE7162089E79A
:104B8000152087E7192085E7182083E7172081E79C
:104B900050070020002C014008E0FFFD3C4A38B5DA
:104BA000546B14F0450F054603D1546B14F0450FB8
:104BB000FBD0610744D414F001043AD102F0C0FDE7
:104BC000854201D0102038BD40F2FF5002F054FE63
:104BD000204602F0BBFD2F4B0340002B2ED00028B7
:104BE00037DB420033D4830035D4C50035D404010B
:104BF00035D4410129D4C20133D4030233D4450250
:104C0000E0D4840231D4C10231D4020331D443034D
:104C100031D4850333D4C4032FD4010435D44204E2
:104C200031D483042DD410F0080F14BF1A200020B3
:104C300038BD012002F020FE012038BD184638BDE5
:104C4000042002F019FE032038BD0D2038BD0920D4
:104C500038BD1C2038BD0A2038BD0B2038BD0C20C3
:104C600038BD0E2038BD0F2038BD112038BD1220B0
:104C700038BD132038BD142038BD162038BD15208E
:104C800038BD192038BD182038BD172038BD00BFE9
:104C9000002C014008E0FFFD2DE9F043054683B0FC
:104CA000002002F053FD10F0007040F0A0806E4C28
:104CB0000022E06000234FF0100920464FF0080862
:104CC00040274FF48066CDE90023C4E90197C4F87A
:104CD0000080266102F016FD4846FFF75FFF10B125
:104CE00003B0BDE8F0836369266103FA09F3C4E900
:104CF00002704FF0370920462360C4F8049002F098
:104D000001FD4846FFF74AFF81460028E8D14FF0F1
:104D1000FF33A36130200223C4E9080300220123EA
:104D200004F11800C4E90A23C4F81C8002F01AFD3B
:104D3000C4E9039620463326A760C4F80090666055
:104D400002F0E0FC3046FFF729FF0028C8D1474FAA
:104D5000E84640F22A6603E002F084FD00284AD1CA
:104D60007B6B33424FF40010F6D0082002F07AFD3E
:104D7000002869D1022002F075FD002869D12020A9
:104D800002F070FD00283BD14FF4007002F06AFD84
:104D90000646002862D140F2FF5002F06DFD009BF4
:104DA000012D1BBA35D0DB032FD563692E48402770
:104DB0001B04C4E9027637254FF48066C4E9003548
:104DC000266102F09FFC2846FFF7E8FE0346002814
:104DD00086D1062520602448C4E90157C4E903367A
:104DE00002F090FC284603B0BDE8F043D6E60E2062
:104DF00003B0BDE8F08302F0DDFC48F8040BAFE738
:104E0000202002F039FD06206AE7252003B0BDE826
:104E1000F0835A03F9D56369134840271B04C4E99A
:104E2000027637254FF48066C4E90035266102F02A
:104E300069FC2846FFF7B2FE034600287FF450AF16
:104E4000022222600625C6E7082002F015FD042094
:104E500046E7022002F010FD022041E74FF4007007
:104E600002F00AFD07203BE750070020002C01401C
:104E7000FFF794BC10B582B001238DF807309DF880
:104E80000730012B02D0022002B010BD0E4843694A
:104E90000D241B04C0E90034402100224FF480633C
:104EA000C0E90323816002F02DFC2046FFF776FE67
:104EB0000028E8D102F04AFCC0F34320043818BFB0
:104EC000012002B010BD00BF5007002010B582B015
:104ED00001238DF807309DF80730012B02D0FF2009
:104EE00002B010BD0C4843690D241B04C0E9003416
:104EF000402100224FF48063C0E90323816002F067
:104F000001FC2046FFF74AFE0028E8D102F01EFC13
:104F1000C0F3432002B010BD5007002082B001232F
:104F20008DF807309DF8070002B070472DE9F04377
:104F3000804E83B0002100200023C6E90C01C6E9A1
:104F40000E01762206F130008DF8073086F84420F5
:104F5000336402F0A3FB032002F0C6FB012002F041
:104F6000BDFB42F2107400BF013CFCD14FF48063E2
:104F700070483361C6E90044C6E902444FF4803505
:104F800002F0C0FB02E0013D00F0C180802002F091
:104F900069FC0028F7D040F2FF5002F06DFC0023BE
:104FA0008DF807309DF8073003F0FF052BB19DF811
:104FB0000700C0B203B0BDE8F0834FF4D5720823F8
:104FC000C6E900235B4840224FF48063C6E902250E
:104FD000336102F097FB58494A6B12F0450F0ED12E
:104FE0004FF4803302E0002B00F093804A6B12F004
:104FF000450F03F1FF33F6D0002B00F08A805007F5
:1050000000F18780510600F191808DF807509DF8DE
:105010000730002B68D10123B3644FF08045002393
:105020003360F3604FF48063424833613727402395
:10503000B360776002F066FB3846FFF7AFFD8DF88E
:1050400007009DF80730002BB1D145F0004545F42D
:1050500080150023372737484FF040094FF4806808
:10506000C6E90037C6E90293C6F8108002F04AFB91
:105070003846FFF793FD8DF807009DF8073003F0E1
:10508000FF07002B93D129232A48C6F81080C6E9D0
:105090000053C6E9029702F035FB274A536B13F021
:1050A000450FFBD05A071AD440F2FF5002F0E4FB40
:1050B0008DF807709DF8073003F0FF00002B7FF498
:1050C00076AF02F043FB002804F101044FF6FF73B2
:1050D00024DB9C42BDD11B238DF8073067E70420F9
:1050E00002F0CAFB0327E3E740231248B360002520
:1050F0004FF480633727C6E90353C6E9005702F02F
:1051000001FB3846FFF74AFD8DF8070087E70323C8
:1051100046E7042002F0B0FB032576E79C42DAD094
:1051200043007FF544AF0223B36440E7402002F020
:10513000A3FB6AE750070020002C014008B50020BF
:1051400002F0D2FA002008BD38B502F0D3FA0028E8
:105150004DD0504CA36C042B02D10025284638BDFD
:1051600000230220C4E90030C0214FF480622046B1
:10517000C4E90332A16002F0C5FAFFF743FC05461B
:105180000028EBD102F0E2FA03460420E36402F0C7
:10519000DDFA03460820236502F0D8FA03460C2006
:1051A000636502F0D3FAA26CA065022A01D9062A2F
:1051B00033D100230320C4E9003040214FF4806242
:1051C0003448A160C4E9033202F09CFA324B5D6BB3
:1051D00015F0450FFBD0680750D415F0010547D1F5
:1051E00002F0AEFA032805D01025284638BD252543
:1051F000284638BD40F2FF5002F03EFB284602F040
:10520000A5FA10F4604F3ED081043FD44204EBD4A1
:1052100003043DD4A26C012300E00123042A9CD0A6
:105220001A04C0210920C4E9010163611948226000
:105230004FF480630022C4E9032302F063FAFFF70E
:10524000E1FB0546002889D102F080FA03460420DC
:10525000E36502F07BFA03460820236602F076FA43
:1052600003460C20636602F071FAA066284638BD3A
:105270000120012502F000FB284638BD042002F081
:10528000FBFA03256AE7A26C030CC7E7132565E761
:105290000F2563E750070020002C01409B49F0B424
:1052A000D1E917420346A50FC4F383661D705E70F3
:1052B000C4F301669E70100EC4F30746DE70000151
:1052C000C4F30726E4B21E715C71D880D8888D6C57
:1052D00083F85650C2F3035480B22043D880C2F3FF
:1052E000034018724869A3F85400C2F3C0305872E2
:1052F000C2F380309872C2F34030D872C2F30030EB
:105300001873012D4FF000005873C2F30724486E44
:1053100040F2BD80022D00F0A080C4F38012640032
:1053200004F07E045A769C769C7EC0F3C01214432F
:105330008A6E9C7600F07F00D40FD8761C77900D93
:10534000C2F341745C7700F00C00C2F382649C7776
:10535000D877DC7FC2F381500443DC77C2F3405539
:10536000C2F30044002083F8205083F8210083F822
:105370002240C2F3C03483F82340C2F3803483F860
:105380002440C2F3403483F82540C2F3003483F84C
:105390002640C2F3812483F82740C2F3012483F816
:1053A0002840CC6CC2F3460283F82920C4F307429C
:1053B000250E4FF0010C120283F82AC083F82C50FE
:1053C000DA85DA8DC4F3072592B22A432406DA85FA
:1053D0001C630C6D1A6B250E42EA05421A631D6BA5
:1053E000220A02F47F422A431A631E6BD1E9152177
:1053F000C4F307253543E4B21D6383F83440140C2D
:10540000150E240683F835509C639D6B140204F43A
:105410007F042C439C639C6B120292B222439A63DA
:105420009A6B42EA11629A6393F83C20C1F30354E9
:10543000224383F83C200A0A02F47062DA87DA8F8A
:10544000C1F3072492B22243C1F34601DA8783F8FD
:10545000401083F841C0F0BC7047120402F47C1283
:105460001A611A69040E42EA04221A611C69C0F327
:10547000074222431A611A690132550BD2049A6419
:105480004FF40072C0F30724DD641A6545E7160A7D
:10549000B60206F440661E611C69920002F47F7237
:1054A00022431A611D69C0F3C26445EA90751D610B
:1054B0001C75C0F302645C75C20BC0F342549C754A
:1054C00002F00602C0F38244DC751A761A7EC0F33D
:1054D000C03422431A761E691D7E1F7A02350122CE
:1054E00002FA07F7AA404FEAE27CA2FB072507FB76
:1054F0000C5506F1010CA2FB0C2C06FB055565446E
:10550000C3E91225C0F307241F6506E750070020F2
:1055100038B51F4DAB6C032B1ED0022B19D8B0F53C
:10552000805F19D0B0F5006F19D00020FFF7B4FBF1
:10553000044678B900220023022105F13000C5E9B4
:105540000C23C5E90E2385F844102C6402F0A6F85C
:1055500000E00024204638BD2724204638BD012025
:10556000FFF79AFB04460028F4D100200021C5E98A
:105570000C0100204FF40061C5E90E01022305F182
:10558000300085F844302C6402F088F8E2E700BF70
:105590005007002030B583B000238DF80730FFF7A7
:1055A0004BF902F06DF8FFF7C1FC8DF807009DF88C
:1055B000073023B19DF80700C0B203B030BDFFF73C
:1055C000C3FD8DF807009DF8073003F0FF05002BA1
:1055D000F0D11D4C00220023022104F13000C4E967
:1055E0000C23C4E90E2384F84410256402F056F815
:1055F00004F17000FFF752FE8DF807509DF8073058
:1056000003F0FF0253B19DF8073003F0FF00002BB9
:10561000D0D1FFF77DFF8DF80700CBE7B4F8C43099
:1056200007251B044021C4E9003520464FF4806360
:10563000C4E90323A16002F065F82846FFF7AEFA3B
:105640008DF80700DFE700BF5007002010B50949BB
:1056500007244023C1E9000400228B6008464FF470
:105660008063C1E9032302F04DF82046BDE81040F5
:10567000FFF794BA500700202DE9F84F2D4C0F4644
:105680002D49002384F8C830C4F8CC30C4F8D03099
:10569000CB62A36C022B14BF16464FF400764FF07A
:1056A00010054FF0000380464FF0400A21484FF4A8
:1056B0008069C4E90065C4E902A308BF7F0AC4F891
:1056C000109002F01FF82846FFF768FA054610B15F
:1056D0002846BDE8F88F4FF0FF339021A062A36108
:1056E0001648E66102234FF0010BC4E90813C4F821
:1056F0002CB002F037F8C4E902A50E482760112546
:105700006560C4F8109001F0FDFF2846FFF746FAE7
:1057100005460028DCD1594640F22A3002F096F8BE
:10572000584602F08DF840463146FFF71FF92846EB
:10573000BDE8F88F50070020002C014068070020CA
:105740002DE9F84F304C9946A36C0F462F49022B98
:105750004FF0000580464FF0010084F8C85018BF94
:105760001646C4F8CC5008BF4FF40076C4F8D000F9
:105770004FF00003CD62244826604FF010054FF033
:10578000400B4FF4806AC4E9015BC4E9033A08BFE7
:105790007F0A01F0B7FF2846FFF700FA054610B16F
:1057A0002846BDE8F88F4FF0FF33902106FB09F63D
:1057B000A062A3611648E66102234FF00109C4E923
:1057C0000813C4F82C9001F0CDFFC4E902B50E48CF
:1057D000276012256560C4F810A001F093FF2846E9
:1057E000FFF7DCF905460028DAD1494640F22A30B5
:1057F00002F02CF8484602F023F840463146FFF705
:10580000B5F82846BDE8F88F50070020002C01406D
:10581000680700202DE9F84F304C1F46A36C9346D3
:105820002F4A022B4FF000050E464FF0010184F87D
:10583000C85008BF4FF4007BC4F8CC504FF00003B1
:10584000C4F8D0108046D5622448C4F800B04FF0A8
:1058500010054FF0400A4FF48069C4E9015AC4E9C9
:10586000033918BF0BFB06F601F04CFF2846FFF783
:1058700095F9054610B12846BDE8F88F4FF0FF3383
:10588000902107FB0BFBA062A3611648C4F81CB073
:1058900002230127C4E90813E76201F063FFC4E9AA
:1058A00002A50E48266012256560C4F8109001F02C
:1058B00029FF2846FFF772F905460028DBD1394653
:1058C00040F22A3001F0C2FF384601F0B9FF4046ED
:1058D0005946FFF74BF82846BDE8F88F50070020DF
:1058E000002C01406807002070B53D4DD5F8D4303C
:1058F0004BB10CE095F8C8204AB95A1C07D0D5F82E
:10590000D42001331AB9D5F8CC20002AF2D0354A78
:105910000023C5F8D430506B10F4005048D04FF03D
:10592000FF3400E07CB3536B13F4005304F1FF34F5
:10593000F8D1D5F8D020012A0FD0B4FA84F040096C
:10594000860040F2FF5001F097FF95F8C83013B180
:1059500095F8C800C6B2304670BD40220C262048DB
:10596000AA604FF48062C5E90036C5E9033201F050
:10597000C9FE3046FFF712F90646002CE1D1002E91
:1059800008BF0426DDE7D5F8D030012BD5D10C2691
:1059900040224FF4806312482B61C5E90046C5E9F7
:1059A000022401F0AFFE3046FFF7F8F80646E6E7BE
:1059B000D5F8D030012B01D00646C2E740220C2496
:1059C000C5E902204FF48063C5E9000404482B6157
:1059D00001F098FE2046FFF7E1F80646B1E700BF68
:1059E00050070020002C01402DE9F0472C4C0F46B9
:1059F0002C49002384F8C830C4F8CC30C4F8D03027
:105A0000CB62A36C022B14BF16464FF400764FF006
:105A100010054FF0000380464FF0400A20484FF435
:105A20008069C4E90065C4E902A308BF7F0AC4F81D
:105A3000109001F067FE2846FFF7B0F8054610B158
:105A40002846BDE8F0871825C4E902A0144865601F
:105A50002760C4F8109001F055FE2846FFF79EF825
:105A600005460028ECD14FF0FF330127C4E90900B7
:105A7000A3610D48E7629023C4E9076301F072FE59
:105A8000394640F22A3001F0E1FE31464046FEF749
:105A900023FF384601F0D4FE2846BDE8F08700BF5A
:105AA00050070020002C0140680700202DE9F84F26
:105AB000404C9946A36C0F463F49022B4FF000051E
:105AC00080464FF0010084F8C85018BF1646C4F84D
:105AD000CC5008BF4FF40076C4F8D0004FF000035C
:105AE000CD62344826604FF010054FF0400B4FF464
:105AF000806AC4E9015BC4E9033A08BF7F0A01F088
:105B000001FE2846FFF74AF8054610B12846BDE8D1
