:020000040800F2
:10000000C0040020A91F00089D1F00089D1F0008B4
:100010009D1F00089D1F00089D1F00089D1F0008D0
:100020009D1F00089D1F00089D1F0008C1030008B8
:100030009D1F00089D1F00089D1F00089D1F0008B0
:100040009D1F00089D1F00089D1F00089D1F0008A0
:100050009D1F00089D1F00089D1F00089D1F000890
:100060009D1F00089D1F00089D1F00089D1F000880
:100070009D1F00089D1F0008110C00089D1F00080F
:10008000B91400089D1F0008C51D00089D1F000829
:100090009D1F00089D1F00089D1F00086113000898
:1000A0009D1F00089D1F00089D1F0008A91400083F
:1000B00091140008B10100089D1F00088D0D000873
:1000C0007D0D00089D1F00089D1F00089D1F000852
:1000D0009D1F00089D1F00089D1F00089D1F000810
:1000E000411300089D1F00089D1F00089D1F000868
:1000F0009D1F00089D1F00089D1F00089D1F0008F0
:100100009D1F00089D1F00089D1F00089D1F0008DF
:100110009D1F00089D1F00089D1F00089D1F0008CF
:100120009D1F00089D1F00089D1F00089D1F0008BF
:100130009D1F00089D1F00089D1F00089D1F0008AF
:100140009D1F00089D1F00089D1F00089D1F00089F
:10015000054B93F8630010F001001CBF93F8640096
:1001600000F00100704700BFC004002038B501F066
:1001700051FD04460D4D01F04DFD001BB0F5B47F5F
:1001800002DAAB68DB06F6D5052001F02DFC06226D
:100190000321064801F031FC642001F025FCBDE894
:1001A000384018220321014801F027BC000C01400F
:1001B00070B53D4C2669B3B2DB43B207236119D554
:1001C00001F028FD42F22832384B9D68636B384CB1
:1001D000C5F3C005A36EC31A934213DD94F86C30C7
:1001E00083B1002384F86C30236F5A1C22675BB103
:1001F000FFF7BCFFF30742BF4FF480222D4BC3F83B
:10020000002170BD0023236794F86C3094F87420AB
:10021000013303F0070345EA4202A06684F86C301C
:1002200084F87420002BE5D165B1FFF791FF94F8B5
:100230007530184310F0FF0F04D0062203211B482D
:1002400001F0DBFB94F874305B0883F07F02672ACF
:1002500084F8742021D8CDB13B2B08D1FFF778FF6B
:1002600028B194F8753083F0010384F875300323C6
:10027000A35400231343DBB2FD2B84F87430B7D1B1
:10028000682200210A4801F0B5FDB1E7A35C03F044
:100290000203A3546FF07F03ECE7002D0CBF6FF057
:1002A0007F030023E6E700BF00040040000C01408C
:1002B000C004002000E100E01049F8B50E460C181B
:1002C0000A5C93070DD502F00105D4E84F3F0027E3
:1002D000934208BFC4E8475F002FF6D1DBB29342D8
:1002E000EED1FFF735FF96F87530184310F0FF0098
:1002F00002D0101E18BF0120F8BD00BFC0040020AE
:1003000010B50E4C18222046032101F076FB18226E
:100310000421204601F071FB9122094B9A610322CE
:100320001A62DA6842F00202DA605022054B83F862
:100330001D234FF000521A6010BD00BF000C014099
:100340000004004000E100E02DE9F14FC0F800D0CA
:1003500010468847009A0021116001B0BDE8F08F77
:1003600038B50368044633B3EFF314839D0703D510
:10037000114B186000DF00DEEFF309814FF0FF330F
:100380000B600E4B8B61CB6903F08073CB612268ED
:100390005007A2F1200544BF43F40073A2F12405E5
:1003A00028464FF0200248BFCB6101F036FD85F3AF
:1003B00009880023236038BD380500205A0300084F
:1003C00010B5034C2068FFF7CBFF0023236010BD5E
:1003D000380500200EB4F3B528240546104B07AEAF
:1003E00004FB003456F8047B0D341422002120460F
:1003F00001F000FD33463A4614212046019601F0F3
:10040000E5F8084B08482146002D18BF1846074A52
:1004100000F056FC02B0BDE8F04003B0704700BFEA
:10042000000000201A300008123000080B310008CC
:10043000044B1B782BB9044A044B51891960D288AC
:100440005A607047DC1400203C050020E4140020B2
:1004500038B50C4C4FF6FF724FF4B671204601F0E0
:1004600089FD40BA084DA4F86C0101F061FA2846F4
:1004700001F078FA2A462046BDE838404FF4B771BB
:1004800001F082BA3C05002000FC000838B5204C81
:10049000204800F015FC204D2388204855F82310F3
:1004A00000F00EFCA3891E4805EB8303D96800F019
:1004B00007FC618A1B4A1C4B1C48002914BF1146CB
:1004C000194600F0FDFB1A4AE1891A4B1A48002927
:1004D00014BF1146194600F0F3FB238A174805EBB9
:1004E0008305A96900F0ECFB6188154800F0E8FB82
:1004F000A188144800F0E4FB6189134800F0E0FB98
:100500002289E1881148BDE8384000F0D9BB00BF1E
:100510003C0500204D300008642900085F300008C9
:10052000733000082C300008333000088630000893
:100530003A300008433000089B300008B030000813
:10054000C5300008D1300008DD300008E830000870
:1005500038B53349334800F0B3FB334C334800F02F
:10056000AFFB334800F0ACFB4FF4B7723149204683
:1005700001F048FC4FF6FF724FF4B771204601F0CE
:10058000F9FC054640B32C4800F09AFB4FF4B772D3
:100590000021204601F02EFC2A22A2703222227174
:1005A0001022A2712822002322720222E3706371BA
:1005B000E3716372A272E3724FF4AA721F4920487A
:1005C00001F020FCFFF762FF1E4800F079FBFFF707
:1005D0002FFF1D4B5B6838BD1C4A022301211046CA
:1005E00001F02FFA0028E7D0194800F069FB4FF41A
:1005F000B7722946204601F0FDFB2A23A37032235F
:1006000023711023A371282323720223E5706571DF
:10061000E5716572A372E572FFF71AFFCCE700BFC0
:1006200060290008F93000083C0500200C31000862
:100630003131000800FC000855310008A0290008ED
:1006400054050020B5310008003801400008014081
:10065000853100081042F8B50C4616461D4614D0E8
:1006600012EA01030DD00C4B2A680C4F002A08BF78
:100670001F4601F0CFFA6B68C01AB84203D92B6845
:1006800001332B6001E024EA0604344202D001F079
:10069000C1FA68602046F8BD20AA4400A0BB0D0046
:1006A0002DE9F0410746A24C0E4694F86E01012256
:1006B00000F0040127EA010104F5B873FFF7CAFF4F
:1006C0000222014604F5BC7394F86E01FFF7C2FFE5
:1006D000984B84F86E711A68054697060CD55868D1
:1006E000C0B201F0E7FB6F2839D0702834D0202841
:1006F00002D145F00405EDB215F0040319D094F8C9
:1007000080310133DBB20C2B2CD884F8803194F883
:100710008031092B05D1884B1B7813B10C2384F849
:10072000803194F88031003B18BF012384F8F03207
:10073000012394F88021013A0B2A60D8DFE812F0F7
:100740004E0061009A00CE00E400240148016901D6
:1007500088019B01C001E40145F00205CBE745F0AB
:100760000105C8E7002384F8803100F0E9FE94F821
:100770008131042B06D8DFE803F0030D05101800C3
:10078000FFF766FE6D4800F09BFAFFF77FFEFFF76C
:100790004FFEBCE7FFF75CFEFEE769494FF4B77216
:1007A000A1F5C17001F02EFBECE74FF4B772002108
:1007B0005F4801F01FFB2A22A27032222271102210
:1007C000A2712822002322720222E3706371E37176
:1007D0006372A272E372FFF73BFEFEE77BB1594AF8
:1007E00000205949FFF7F6FD01205849FFF7F2FDB7
:1007F0004F494FF4B77201F5C17001F003FBBDE83A
:10080000F0811BB100205249FFF7E4FDE80703D552
:10081000238813B3013B2380A90708D5238801331C
:100820009BB2022B89BF0023238023706370AA0729
:1008300017D023889AB2022A01D0464A1380228810
:10084000454B022A12D1434A128853F82230012024
:10085000BDE8F041414A4249BCE502226370227082
:10086000DAE7354315F0FF0FC9D0E8E753F8222047
:100870003C49C6E01BB100203B49FFF7ABFDEB074D
:1008800003D5A389EBB1013BA381AF0708D5A389A9
:1008900001339BB2022B89BF0023A38123736373AF
:1008A000A80712D0A089022801D000F077FEA28903
:1008B000294B022A0ED12D4A128803EB8203DB68F2
:1008C000C5E7022263732273DFE7354315F0FF0F9C
:1008D00095D0ECE703EB8203DA68C9E71BB100208F
:1008E0002349FFF777FDA9070AD0638A83F0010344
:1008F0006382618A1F4A204B002908BF1A46B7E766
:10090000002D3FF47CAFF4E71BB100201B49FFF73B
:1009100061FDAA0707D0E38983F00103E381E18940
:10092000174A184BE8E7002D3FF469AFF7E700BF1F
:100930003C05002000380140DC1400200A3100088A
:10094000BE06002060290008DC310008E7310008FD
:10095000F4310008BC1500206429000803320008A7
:1009600008320008323300081032000898150020C1
:100970001E3200082C300008333000082E320008E8
:100980003A300008433000081BB100207949FFF7D6
:1009900021FDEB0703D5238A93B1013B2382AF07E7
:1009A00012D5238A01339BB2022B89BF00232382F5
:1009B00023746374228A704B03EB82039A6957E7AE
:1009C000022263742274EAE7002D3FF418AFF1E7C6
:1009D0001BB100206949FFF7FDFCEE0706D56388CF
:1009E000013B9BB2012B38BF01236380A8070CD5C4
:1009F000638801339BB2C72B28BFC72363806288FB
:100A00005F490120BDE8F041E4E4002D3FF4F7AE7A
:100A1000F5E71BB100205B49FFF7DCFCE90706D5D1
:100A2000A388013B9BB2022B38BF0223A380AA07F5
:100A30000AD540F22B12A38801339BB2934228BF00
:100A40001346A380A288DBE7002D3FF4D8AEF9E778
:100A50001BB100204C49FFF7BDFCAB0707D06389F1
:100A6000022B0CBF0423022363816289C8E7002D97
:100A70003FF4C5AEF9E73BB1502263890020B2FBD9
:100A8000F3F24249FFF7A6FCEF0748BFE38861890C
:100A900044BF03F1FF33E380AE0742BFE388013375
:100AA000E3805023E288B3FBF1F3012A38BF01222F
:100AB0009A4228BF1A46E280002D3FF4A0AE9FE77D
:100AC00043B1502263890020B2FBF3F33049E2883E
:100AD000FFF780FCE80742BF238903F1FF3323813E
:100AE000A90748BF2389618944BF01332381228933
:100AF000E3889A4238BF1A465023B3FBF1F39A4277
:100B000028BF1A462281D7E783B100202149FFF789
:100B100061FCB4F89021E3899A4222D1B4F8922181
:100B2000238A9A421DD1002384F88131EA0705D532
:100B300094F88131BBB1013B84F88131AB0714D506
:100B400094F881310133DBB2042B88BF002384F891
:100B5000813194F88121084B03EB8203D3F894216F
:100B600086E60123E0E70423E6E7002D3FF447AEE5
:100B7000EFE700BF3E320008642900084E3200084B
:100B80005D320008603200086F3200087E320008D3
:100B90008E3200089F3200081A4B19781A4699B114
:100BA00019495068D2F80838984201D1704700BFFF
:100BB0000B681B06FBD55368581CC3F30A03134488
:100BC0001B7A50604B60ECE7D3F80C28C2B9596827
:100BD000D3F80828914213D0C1F30A00521AC2F385
:100BE0000A02C0F500618A4228BF0A460833074955
:100BF000C3F8042803440B6540F293138A644B64E2
:100C0000704700BF3008002000380140000002405B
:100C100000214FF48052064B59645A60054B5A68C4
:100C2000D3F80C08C3F80C1802445A60B4E700BFAC
:100C3000000002403008002002460B462DE9F0413A
:100C4000EFF31185691E090602D5802181F3118811
:100C50001A4C802104F5016000F0B8FC40F2FF77E7
:100C600000214FF00D0ED4F804C0D4F80838064621
:100C7000EDB204F5016010F8012B82B909B1C4F896
:100C80000838FFF789FF85F311883046BDE8F08109
:100C9000C3F30A01214481F808E0013307E0A3EB24
:100CA0000C08B845EAD00A2AF2D00D2AE3D0C3F3E3
:100CB0000A0121440A7201330121DCE730080020D7
:100CC0000FB407B504A951F8040B0191FFF7B4FF65
:100CD00003B05DF804EB04B07047064B1A7842B9D4
:100CE00072B601221A70044A936C03B990E700BFF0
:100CF000FAE770473008002000000240044BD3F8A8
:100D000008285968914200D1704700BFF9E700BF39
:100D10003008002010B5144A144C9369204643F45F
:100D2000804393610922114600F067FE18220A21D0
:100D3000204600F062FE40F271220D4B9A6042F2B2
:100D40000C02DA6080225A610A4A03F54843DA64E9
:100D50004FF480525A60E022074B83F80E234FF481
:100D600080421A6010BD00BF001002400008014020
:100D7000003801400438014000E100E0024A5369B4
:100D800023F45F43536170470054004010B51B4B80
:100D900059698C070FD59B69194A13F0040F08D1C4
:100DA0001388581C108003F00703508A02EB43039A
:100DB000588000231375C80642BF40F201420F4B12
:100DC0001A604A0609D50D4B18690D4B5A8A541CF6
:100DD000C2F309025C82134458750B060CD5084B0C
:100DE0001A7D032A8FBF0023511C19759B1898BFC9
:100DF00093F81534014A136110BD00BF0054004040
:100E0000C01000202DE9F04FA44F89B097F81C3492
:100E1000B7F81280B7F81A443BB9A14DA14E44452A
:100E200040F0C980A7F81A4457E0B7F81E64B7F835
:100E300000A0AAEB06039BB2012B0AD9AAF1020378
:100E40009EB203F0070307EB43035C88002387F897
:100E50002034A8EB04039BB2B3F5007F00D300DE7F
:100E6000002097F8212497F82034059297F8302431
:100E7000D7F82CE497F8D454D7F8289403928446F2
:100E8000D7F824240746CDE9060084490192029050
:100E90000490444524D1BCF1000F01D081F82034E6
:100EA0000FB181F8D454079B0BB1C1F82894069B6D
:100EB00013B1019BC1F82434049B13B1059B81F845
:100EC0002134029B13B1039B81F8303408B1C1F87F
:100ED0002CE4A1F81A84A1F81E6409B0BDE8F08FD3
:100EE000C4F309020A44B245527D1AD006F0070B3A
:100EF00001EB4B0BBBF802B0A34512D14FF0010C34
:100F00000136B6B202F0C003402B24D102F03F09F3
:100F10000123B9F1280F28BF4FF0280907930023B8
:100F200016E0002BEED04FF0280B5F1E0BFB0717CF
:100F30002F440135EDB24D4587F8312431DB0127CF
:100F4000019A0133DBB293424FF00005BC46E6DC68
:100F50000134A4B29DE702F0F003202B11D008D891
:100F6000ABB1102BDBD102F00303019301230693F5
:100F7000D5E7302BD3D102F00F030593012304935F
:100F8000CDE702F00F03039301230293C7E7012A81
:100F900009D0022A0AD0002A04BF01204FF0000E17
:100FA000D6E70127D4E710469646D1E701271D462C
:100FB000BC463B46CCE7C4F309033B445B7D03F0EE
:100FC0000602042A48D1C3F3C002C7F82C2497F8BC
:100FD000D52403F001018A421FBF82F0010287F885
:100FE000D52401222A802A881B0943EA02139BB2D6
:100FF000DA052B8030D597F8D524DBB2A2B397F869
:10100000D624672A2BD9002287F8D624D7F82414AF
:1010100097F8D6C404290CF03F024FEA9C1003D184
:10102000132A84BF143A0230282101FB00701044B7
:1010300080F83134D7F828340CF1010C9A4287F843
:10104000D6C407DB338901329A4294BFC7F82824FB
:10105000C7F8283401232B800134A4B2DFE6283AF4
:10106000172AD3D84022CFE7002BF3D08021194292
:101070000AD0062A10D0072A09D0002AEAD103F0A4
:101080007F0387F8D634E5E749080132EFE7A0226D
:101090002021054800F0AEFE0023F2E7C01000203A
:1010A000B00000203C050020F114002037B5254A8F
:1010B00001230021104600F0C4FC0025224C01A9A8
:1010C00084F81C040A22214884F8155400F002FF19
:1010D00084F81604019829460A22013000F0FAFE2D
:1010E0001B4A84F81704D369062143F40013D36123
:1010F00018480E2200F081FC0E220721154800F04E
:101100007CFC40224FF00041134B83F81F23C3F8AF
:101110008011196083F820230122C3F884215A60CA
:101120000E4B1D6094F81C24AA4214BF20224E22AC
:101130009A6040F224725A6040F201421A6003B091
:1011400030BD00BF00080140C01000206029000829
:1011500000100240000C014000E100E0005400409B
:1011600010B5144A144B1088998801285B8815D152
:10117000490051601289C3EBC303012A4FF080423A
:101180000E480CBFA3F10C04A3F11804591EC4624D
:10119000D1624FF08042483B536310BD516014222E
:1011A0005343064AA3F13101D1624FF08042591EE8
:1011B000EEE700BF981500203C0500200008004025
:1011C00010B5354B354C1A7872BB354960898B6840
:1011D000C3F3800343EA40039BB2002B08BF042201
:1011E00063818B68217B03F0030343EA810303F0EF
:1011F0000F032C4923735B0021FA03F303F003036D
:101200001A4342F00802637B21691A4301F52F411A
:10121000D2B22548C831627300F069FD236A0133F8
:10122000142B03DC236210BD0822ECE700231120FD
:101230002362FFF741F838B11C4A9388013B9BB207
:10124000022B38BF022393802120FFF735F848B1E5
:1012500040F22B11154A938801339BB28B4228BF71
:101260000B4693802020FFF727F838B10F4A5388A8
:10127000013B9BB2012B38BF012353802220FFF793
:101280001BF80028CFD0094A538801339BB2C72BE3
:1012900028BFC7235380C6E7DC1400209815002020
:1012A0000008014000010020A81500203C05002096
:1012B0000E4B0F4A998C0F4B61B1D96821F48241D2
:1012C000D960996841F482419960136A43F002033E
:1012D00013627047996821F482419960D96841F49A
:1012E0008241D960136A23F00203F1E798150020C8
:1012F000002C01400004014038B50F4B0C4693F818
:101300002620104004D093F82700003818BF012091
:101310002378C5B2834205D02DB100F07BFC0123B8
:101320006060237038BD00F075FC6368C01A034B21
:101330009842C8BF2570F5E79815002040771B003C
:101340004FF48042034B5A610023034A9360034ADF
:101350009362704700040140002C01409815002062
:101360004FF4807370B5454E454D7361AB6A2C46A2
:10137000002B4CDC00F04EFC424B9B68F268C3F340
:10138000002342F48242F260B26842F48242B260C8
:10139000EA6A821A002AB8BFE862EA6A821A0BB3C4
:1013A000296B0A442A63A26BE062511CB2F57A7F72
:1013B000A16312DB616B226BB2EBC10FC8BF0122CC
:1013C000216BC8BFA287626BB2EB810F4FF00002A6
:1013D000A263C8BFA28762632263A28C9A4205D12E
:1013E000206470BD696B0A446A63DCE7236CC01A31
:1013F0005A2802DD0023A362F3E7A36A002BF0D191
:101400000123A362FFF7ACFEBDE8704050E76A68B5
:1014100001339342AB6210D200F0FCFB6B6C68644A
:10142000C21AAB6C591C05EB8303A964DA64AB6C7C
:10143000132BD6DD0023AB64D3E76968B5F89C2095
:101440000A449342104A0AD3002393604FF0FF33BB
:10145000AB62D5F8A0300133C5F8A030C1E7D42184
:1014600091606A689342BCD12B8905F1A402012BDB
:10147000064B0CBFDA635A66B3E700BF00040140B5
:101480009815002000080140002C01400000024097
:101490001622044B01209A604FF0804300221A610B
:1014A00000F0A2BA002C01400022024B01201A6178
:1014B00000F09ABA002C01404FF4801310B51B497C
:1014C0001B4A4B601368002423F001031360194A80
:1014D00019481389012B194B13D10C631B685B68E6
:1014E00003EBD3735B1001334B63438A23B1516821
:1014F000936A5B1ADA0703D50C4AD36B2A33D3639A
:1015000010BD8C651B685B6803EBD3735B10013304
:10151000CB65438A23B15168936A5B1ADB07EFD529
:10152000024A536E2A335366EAE700BF00000240C6
:10153000002C0140981500203C050020B40000203C
:101540000022034B4FF4FA70A3F89C2000F04CBA31
:10155000981500200222064B5A60064A1288012A7A
:101560000CBF40F6453240F655321A60704700BF56
:1015700000300140981500200222064B5A60064AAE
:101580001288012A0CBF40F6453240F64D321A60EF
:10159000704700BF003800409815002008B5064B82
:1015A00018801B89012B04D1FFF7D4FFBDE8084048
:1015B000D6E5FFF7E1FFF9E79815002003688B42B5
:1015C00038BF1A7003680133036070472DE9F04F8C
:1015D0008046174687B01D464B1E02900093C118E7
:1015E000BA461AF8012B52B9029B8B4200F2FA80DC
:1015F0001A700298A0EB080007B0BDE8F08F252A0A
:1016000004D002A8FFF7DAFF5746E9E70026344680
:101610001CE0A2F16303152B26D8DFE803F0725615
:101620002525253E562525252525491125255B25DA
:1016300058252511392A21D9582A15D144F4807406
:1016400044F0100436E055F8046BBA46574617F8D4
:10165000012B782A08D8622ADBD8302A0BD0E9D8A7
:10166000232A05D02A2AEED002A8FFF7A7FFB7E762
:1016700044F48064E9E744F40064E6E7A2F130064C
:101680003A4612F8013BA3F130000928DDD80A20C0
:1016900000FB06361746303EF2E79AF80130682B19
:1016A00006BF44F480540AF1020744F40054CCE726
:1016B00044F00804E30455F8049B04F4007224D5B4
:1016C0005FFA89F924F4007432E044F4007444F0C1
:1016D0000A04EFE755F8044B2644A6EB040A14F875
:1016E000012B52B9BAF1000F7FF77AAF202202A87E
:1016F000FFF764FF0AF1FF3AF4E702A8FFF75EFF85
:10170000EBE755F8042BD2B2AEE7A00437D59AB375
:101710000FFA89F9B9F1000FD4DA230505D52D2286
:1017200002A8FFF74BFF24F40074013EC9F1000941
:1017300060050FD504F01F0ABAF1080F02D0BAF104
:10174000100F07D1302202A8FFF738FFBAF1100FAF
:1017500018D0013E0DF10C0AB9F1000F18D1302359
:101760000DF10D0B8DF80C3014F4006F14BF302206
:101770002022ABEB0A0327E01FFA89F9A2E7002A2F
:10178000A0D0C7E7782202A8FFF718FF023EE1E7E2
:10179000D346174A14F4807F164808BF104604F059
:1017A0001F02B9FBF2FC02FB1C9E10F80EE00BF8C6
:1017B00001EBCE467245E146F3D9D5E702A8019385
:1017C000FFF7FCFE019B013EB342F7DBA30503D507
:1017D0002D2202A8FFF7F2FED3453FF401AF1BF81C
:1017E000012DF6E788459CBF009B08F8032000E721
:1017F0005A330008493300080CB407B504AB53F85A
:10180000042B0193FFF7E2FE03B05DF804EB02B096
:10181000704700BF044AD36813F00103FBD13421A1
:10182000D1601361704700BF00200240EFF30881D0
:1018300081F30988022181F31488BFF36F8F344B41
:1018400083F30888334B344A9A605A6942F404722D
:101850005A615A6A42F4E0225A624FF07F42DA61DA
:101860004FF47F021A6212222C4B1A60A3F58053A8
:101870001A6842F480321A601A68910341D5284AE6
:101880005A601A6842F080721A601A6892013AD55A
:101890005A6842F002025A605A6802F00C02082AA2
:1018A00033D11A681F4922F001021A606FF07F429B
:1018B0004A6001220A6044F20701D96141F61D0124
:1018C00099615A61184B194A4FF6FF715A604FF0EF
:1018D000883302F1785202F580321161536013604F
:1018E000C2F81014C2F80434C2F80034C2F8101858
:1018F000C2F80438C2F80038BFF34F8FBFF36F8FC0
:10190000704700BFB8E700BFBFE700BFC4E700BF34
:10191000C002002000ED00E00000000800200240AE
:1019200000C41D0010E000E00000014000080002BB
:10193000094B1A6842F001021A601A68910709D52A
:10194000064B1A69120641BF054A5A6002F18832F5
:101950005A605FE700BFF0E700100240002002403D
:101960002301674508B5FFF755FF064B1A6942F09A
:1019700002021A6158611A6942F040021A61BDE818
:10198000084047E70020024070B50C461546FFF7B7
:1019900041FF094E2D1A0444844205EB000200D198
:1019A00070BD336943F00103336130F8023B1380AB
:1019B000FFF730FFF0E700BF00200240054A9368C0
:1019C00091685B1A23F07F43984202D9C01A0B46F4
:1019D000F6E7704710E000E04FF47A7300EBC000C8
:1019E000B0FBF3F0FFF7EABF00EBC000FFF7E6BF84
:1019F00042F228335843FFF7E1BF130914BF012314
:101A00004FF48033072903FA01F330B503614FF037
:101A10000F0402F00F020AD9083945688B009C4078
:101A200025EA040402FA03F32343436030BD03684C
:101A300089008C4023EA040402FA01F12143016089
:101A4000F4E72DE9F0411D46144606460F460822EC
:101A5000FFF7D3FF082229462046FFF7CEFF2D20AF
:101A6000FFF7ACFFB368FB40DB070ED54FF0000873
:101A7000394630461822FFF7C0FF20461822294673
:101A8000FFF7BBFF4046BDE8F081A368EB40D807F5
:101A9000ECD4182239463046FFF7AFFF294618220A
:101AA0002046FFF7AAFF2D20FFF788FFB368FB4011
:101AB000D907DBD5A368EB40DA07D7D5182239461A
:101AC0003046FFF79AFF022229462046FFF795FF8E
:101AD0002D20FFF773FFB368FB40DB07C6D4182245
:101AE00029462046FFF789FF022239463046FFF794
:101AF00084FF2D20FFF762FFA36823FA05F86FEA41
:101B0000080808F00108B3E708B5FFF7E6F8084849
:101B1000FFF7D6F8074B1A68110606D51A68520661
:101B200003D5054B054ADA60FEE700BFF3E700BFC7
:101B30006B3300080038014000ED00E00400FA05B6
:101B4000F7B50446EFF30382006AD2B2410704F10D
:101B5000240341D5EFF309851E4605F120070F2A1E
:101B600040D82249DFF8A8C010F0080F204808BF6D
:101B70006046AB6900901F48FFF7A2F8EB681E486B
:101B80000093D5E901232968FFF79AF8E3682168F3
:101B900000931A48D4E90123FFF792F8E369216919
:101BA00000931748D4E90523FFF78AF8236A2969C7
:101BB00013F0040FAB6918BF3A46009308BF3246D2
:101BC0006B691048FFF77CF83A463146EB690E48DE
:101BD000FFF776F8FFF798FFEFF309871D4604F14A
:101BE0004406BCE70949103ABCE700BF7D33000852
:101BF0008733000896330008BA330008EA33000838
:101C00001A3400084A3400087A340008793300088E
:101C10008E330008064B074A1B68926803F07F402A
:101C20001043834238BF00F17F40C043704700BF7C
:101C30005820002010E000E008B5FFF7EBFFC2439A
:101C400003460448044940F8042B1944BDE8084001
:101C500000F04DB85820002020AA440010B500F034
:101C60009DF8094B094C9B68094944F8043B204600
:101C7000002200F037F8FFF7CDFF06490144204667
:101C8000BDE8104000F033B810E000E0582000201C
:101C9000391C000820AA44000C22114BB0F5803FEB
:101CA0001A600FDA0D284FF00702B8BF0D209A62B4
:101CB0000C380122D8620A4B5A6100221A610D22A7
:101CC0001A60704741F61F429A624FF4617290FBAE
:101CD000F2F04FF6FF723238904228BF1046E8E724
:101CE000000400400123C0E90112C3607047F8B549
:101CF00004460D46EFF31186731E1B0602D58023A2
:101D000083F31188E368154F012BF6B207D03A46EA
:101D10003B689C42D96814D101231160E3602560BF
:101D2000FFF778FF3B680246281A0C4D6BB9E36059
:101D30002C603B68A34201D1FFF7AEFF86F3118808
:101D4000F8BD03F10C020B46E3E71968891A8142DA
:101D5000EDDA03F10C05DB68E8E700BF6C2000203A
:101D600010B5EFF311835A1E120602D5802282F3BA
:101D70001188DAB2C368012B07D0074B1968884273
:101D8000CC6805D11C600123C36082F3118810BDAB
:101D900001F10C032146F2E76C2000200022074BE2
:101DA0005A60DA6842F00102DA608022044B83F85C
:101DB00012234FF480221A60704700BF00040040D5
:101DC00000E100E0F8B50127094E346804B9F8BD18
:101DD0002568FFF71FFF281A0C2802DDBDE8F84030
:101DE0005AE7E368E7603360D4E901309847ECE7ED
:101DF0006C20002003460244934200D1704703F850
:101E0000011BF9E710B5431E0A44914200D110BDF1
:101E100011F8014B03F8014FF7E7884230B405464B
:101E20000C4602D230BCFFF7EDBF034614448218C3
:101E3000934202D1284630BC704714F8011D02F8C5
:101E4000011DF5E703460246D01A12F8011B0029CE
:101E5000FAD1704703460020884201D01A5C02B9CB
:101E600070470130F8E770B505460024A24201D161
:101E7000002006E02E5D0B5DF01A02D10134002E29
:101E8000F4D170BD6FF00042FFF7EDBF03460020B4
:101E900010B51C462278013302B910BD8A4208BF32
:101EA0002046F6E7421E11F8013B02F8013F002BE5
:101EB000F9D17047A0F14103192B98BF203070472A
:101EC000202805D0093804288CBF00200120704745
:101ED00001207047F8B503461C4613F8016B3046E5
:101EE000FFF7EEFF05460028F6D13046FFF7E2FF88
:101EF0002B2801D02D281DD1A0F12D035E42607842
:101F000004F101075E413C46FFF7D4FF302813D1AE
:101F1000002A607808BF0822FFF7CCFF782804F178
:101F2000010705D1102A1FD1A078A71CFFF7C2FF17
:101F30003C4604E02E46E9E7002A08BF0A2227466D
:101F4000A0F13003092B09D8184690420CDA02FBA5
:101F5000050517F8010FFFF7ADFFF1E7A0F16103E9
:101F6000192B01D85738F0E701B10F6006B16D4267
:101F70002846F8BD03460144104610B5064C8B4276
:101F800000D110BD13F8012B82EA102234F8122080
:101F900082EA002290B2F2E7122E00082DE9F04FFB
:101FA0006846FFF7CDBD00004CF6CC422DE9F04F5E
:101FB000BD4B85B01A60DA689207FCD145F25552E4
:101FC0001A6003225A604FF4C8729A604AF6AA2235
:101FD000B648B7491A60884203D0B64A121AFFF7CA
:101FE00011FFB548B54A0021121AFFF703FFB44D9F
:101FF000B44BB54C1D60B54B00261D60FFF716FCB9
:10200000FFF72CFEFEF786FEFFF750F818220D2191
:10201000AF48FFF7F2FC18220021AE48FFF7EDFCB5
:1020200018220121AB48FFF7E8FC18220221A94839
:10203000FFF7E3FC18220821A648FFF7DEFC182270
:102040000E21A548FFF7D9FC06220321A148FFF77E
:10205000D4FC062204219F48FFF7CFFC062205216D
:102060009C48FFF7CAFCFEF773FA9C4BDFF86882C6
:10207000D97B9A7B42EA01222281597C1A7C029503
:1020800042EA0122A4F8DC2900221D46A2841A8813
:1020900091B2012908BFA2842B7DAF7DF340374167
:1020A000DB0707F0010707D53A01404642F0060278
:1020B00006F10801FFF7A1FC6B7DF340D80707D5B7
:1020C0003A01404642F0020206F10801FFF795FC92
:1020D0000136032EE0D12389012B08BF804A814BB2
:1020E00016BF814A9A631A66A889022808BF002091
:1020F000FFF754FA7D4A0121536943F48073536119
:10210000D2F8003402F5806243F4824313602389DD
:10211000012B08BF02F57C42724B14BF744A303267
:102120005A62744A9A6243F231621962DA614FF07C
:10213000804300229A6259615A604FF48072DA60DB
:102140008C221A6006229A6023890B228B4240F06F
:10215000DE8205215F48FFF750FC0B2207215D4816
:10216000FFF74BFCB4F8DC595A4E002D00F0D78233
:102170006B1E012B40F2F282012543F631234FF012
:1021800000094FF48070D4F8E0295649DFF88081C7
:10219000C1F88820C1F88C80C1F88450C1F8803023
:1021A000554B4FF6FF77C3F828905D61C3F8049054
:1021B000D8608C201860062098604FF08040C0F8EE
:1021C0001890C3684FF0880C43F00203C3604B4B78
:1021D000C3F82890DF6220279D615F60C3F800C0CC
:1021E0001D624A6708F104028A6743F633220D67CD
:1021F000CA664FF40062C3F81C90DA604760DA697F
:10220000DA61DA6842F01002DA60FFF751F8FEF79F
:1022100077F8B3684A4603F003033949A8F6D410A7
:102220002373FFF75FFDFFF7F5FC05260146A8F6CF
:10223000D410FFF75CFD3349334A0B78D01880F88F
:102240000073580903F01F0305FA03F3403042F806
:10225000203011F8013B013E4FEA531003F01F03F9
:1022600005FA03F342F82030E7D1FFF7D3FC3746F5
:10227000264B00901B78C4F8EC0901934AF6AA2279
:10228000094B1A60114B029A1B68934200D000DE82
:102290000C4B029A1B68934200D000DE0A4D4FF0AF
:1022A0000508A94636E000BF0030004000000020CD
:1022B000A0340008BC000020C004002070200020D2
:1022C000EFBEADDEC002002098150020C000002047
:1022D0000010014000080140000C01403C050020B6
:1022E0000C300140000002400C380040000001406A
:1022F00058000240B800002000080040002C0140B7
:10230000C11100080C2B000800E100E03505002099
:102310007C1F00206B68AA6A033B934240F237821D
:10232000FFF778FC009BC01AC14B984200F337823C
:10233000FFF770FCD5F8EC39C01ABE4B984249DD66
:10234000FFF768FCBC4BC5F8EC099A894FF0000A0E
:10235000022A98462ED1534609EB8302D26C0133F0
:10236000142B9244F8D1BAFBF3F3BAF1130F94BFD4
:102370004FF0000A4FF0010A0022C3F10A0009EBF6
:102380008201C96C01320144152928BF4FF0000AAF
:10239000142AF4D1BAF1000F0CD0A6492A88B1FB57
:1023A000F3F344F61F618B4200F20A8212B100205F
:1023B000FFF7F4F8B8F8003046EA0A06022BF6B246
:1023C00040F00382AB8FAA8C9A4200F0FE81AB846E
:1023D00001231E43DFF8B482019B98F800209A4243
:1023E0001AD09649964B9748002A18BF0B462821C9
:1023F000954AFFF701FA9348FFF724FD0123C4F83B
:10240000F409C4F8F039C4F8F839FFF703FC98F878
:102410000030C4F8A00A0193D5F8A030002B5AD0A0
:1024200017B18A48FEF74CFCFFF7F4FB0023C5F810
:10243000A030874B874F1B780090002B40F0C7815E
:10244000B979854B854A002908BF13463B60D5F80A
:10245000F83963B1FFF7DEFBD5F8A03AC01A804B1C
:102460009842CBBF00237F4BC5F8F8393B60002270
:102470003F683B6803EB83056D000235ADB29342C4
:1024800000F3A781342D28BF34254FF00008DFF872
:1024900000A2A845C0F2A581BB68734A002B00F0DA
:1024A000CA8111887B680129704940F0BE8110897A
:1024B00001280BBF1B015B0124333633CB63CB6B8D
:1024C000483B0B645C4B5F8A002F00F0B181002712
:1024D0006D00A2F89C500023634D4F2085F82630F4
:1024E000FDF7EAFEA84628B195F8263043F001032F
:1024F00085F826304E20FDF7DFFE28B195F826300E
:1025000043F0020385F826304C20FDF7D5FE28B1B4
:1025100095F8263043F0040385F826305F20FDF758
:10252000CBFE28B195F8263043F0080385F8263015
:102530004620FDF7C1FE95F8A43A984222D083F0D8
:102540000102012B85F8A42A1CD0424B3D489A7900
:1025500082F0010199714649464B012A18BF0B468A
:102560002821454AFFF748F93648FFF76BFC01235D
:10257000C4F8F409C4F8F039C4F8F839FFF74AFB95
:10258000C4F8A00A4FF00009DFF8ACA09AF81830A0
:1025900073B309F15000C0B2FDF78EFEB8F8A62A59
:1025A00042FA09F303F00103834221D04FF0010BFB
:1025B0009AF819E09AF818300BFA09FB23EA0E038F
:1025C00082EA0B024FEA0E214FEA032CA8F8A62A52
:1025D000002840F034812223174A03FB09235B8B38
:1025E000DB0705D5254A4CEA0E631361C8F8F809E4
:1025F00009F10109B9F10A0F0AF1220AC6D1DFF87F
:102600005080DFF8649098F80030002B00F055817E
:10261000002389F8273001201949FEF76DFE0220BA
:102620001849FEF769FE04201749FEF765FE31E000
:10263000A0BB0D00405489003C0500200D3300086C
:1026400012330008951F0020293300083533000895
:102650002C080020B4000020E4140020C41E002038
:1026600080A81201881F002098150020002C01402E
:10267000853300081B33000841330008000C01407B
:102680004020002048200020502000203505002058
:102690000C2B000894F8A83A94F8B02A003B18BF15
:1026A00001230AB143F0020399F8B82A0AB143F0B2
:1026B0000403A04AD37099F8263013B10022C9F858
:1026C000F82999F80D20FAB1EFF31182511E09068D
:1026D00002D5802181F311880021687BD2B2C0B27B
:1026E000697382F3118898F80020002A00F0EF80C7
:1026F00003F007031843904B31461B78002618431C
:1027000000F0F700FDF7CCFFFEF77CFBB6E50D21EE
:102710008A48FFF772F90B220F21884820E52389A8
:10272000012B0DD1C4F8E06933680422072130463B
:10273000C4F8E439FFF761F93368C4F8E8391BE5F8
:102740007F4B7E4DC4F8E0396B6804220F21284688
:10275000C4F8E439FFF751F96B68EEE7022D0CBFBE
:10276000132203220F213046FFF747F9754B022D44
:10277000C4F8E0390CBF4FF000434FF40043C4F8F5
:10278000E4390CBF4FF400434FF00043D5E701207C
:10279000FFF72EF9B8F101087FF4BCADC0E517B919
:1027A0006948FEF78DFAFFF735FA009072B60022FD
:1027B000664B9A604FF0FF33AB6262B60127B7E514
:1027C000012A3FF4F7AD0120F2E5002301E6604B5A
:1027D0003CE6397B1141C90744BF0835ADB201322F
:1027E0004DE62A225B4B002102FB08394846FFF7E1
:1027F00001FB00213868A8F1020381420AD03A7B2C
:10280000CA4012F001020CBF4FF0080C4FF0100C40
:10281000002B02DA08F101083BE663455CDB0CF1B2
:10282000020CA3EB0C030131E7E79B01503345E6B3
:10283000A2F89C504FE61F46A2F89C304BE63F4A58
:1028400041EA036313619AF81C200AF11C0B002A69
:102850003FF4CEAE0021A0223F48C8F8F019C8F8D6
:10286000F419FFF7C7FA5846FFF7ECFA28223B4B5A
:102870000390D8F8F009594602FB00300D30FFF7FD
:1028800011FB039AD8F8F419501C9142ACBFC8F858
:10289000F419C8F8F4298344D8F8F0199BF80020FB
:1028A0000131C8F8F019002ADDD10123C8F8F83940
:1028B000FFF7B0F9C8F8A00A9AE695F8263095F81F
:1028C0002720134304BF012385F82730A3E61B0705
:1028D00048BF40F004000EE702B15B102820002240
:1028E00000FB017053440D3079688A4292D210F88F
:1028F00002C022F0010EACF120015F2988BF4FF029
:10290000200C12F0010F14BF4FF0000B4FF0080B1A
:10291000ACF1200C5FFA8CFC03EBCC0C9CF805C0EE
:1029200039F90E100CFA0BFC41EA0C0C29F80EC018
:102930000132D9E7D5140020E1140020000C014039
:10294000040C0140100801401E330008002C014017
:10295000000000203C160020951F0020881F00204A
:10296000312E3900DA320008DE3200080332000866
:10297000E3320008E932000803320008ED320008B3
:10298000F23200080033000800002A003200100074
:10299000280002000000000000000000000000000D
:1029A0000000000000000000000000000000000027
:1029B0000000000000000000000000000000000017
:1029C0000000000000000000000000000000000007
:1029D00000000000000000000000000000000000F7
:1029E00000000000000000000000000000000000E7
:1029F00000000000000000000000000000000000D7
:102A000000000000000000000000000000000000C6
:102A100000000000000000000000000000000000B6
:102A200000000000000000000000000000000000A6
:102A30000000000000000000000000000000000096
:102A40000000000000000000000000000000000086
:102A50000000000000000000000000000000000076
:102A60000000000000000000000000000000000066
:102A70000000000000000000000000000000000056
:102A80000000000000000000000000000000000046
:102A90000000000000000000000000000000000036
:102AA0000000000000000000000000000000000026
:102AB0000000000000000000000000000000000016
:102AC0000000000000000000000000000000000006
:102AD00000000000000000000000000000000000F6
:102AE00000000000000000000000000000000000E6
:102AF0000000000000000000B0320008B5320008FD
:102B0000C0320008C4320008CC3200081B1C101769
:102B1000280000000000000000183C3C18180018B5
:102B2000006C6C0000000000006C6CFE6CFE6C6CB5
:102B300000183E603C067C180000C6CC183066C603
:102B400000386C6876DCCC76001818300000000085
:102B5000000C18303030180C0030180C0C0C1830E9
:102B60000000663CFF3C6600000018187E18180044
:102B70000000000000001818300000007E00000077
:102B800000000000000018180003060C183060C098
:102B9000007CC6C6C6C6C67C001838181818187E31
:102BA000007CC6061C70C0FE007CC6061C06C67CE7
:102BB000001C3C6CCCFE0C0C00FEC0FC0606C67C67
:102BC000003860C0FCC6C67C00FE06060C1818184B
:102BD000007CC6C67CC6C67C007CC6C67E060C7859
:102BE0000000181800001818000018180000181825
:102BF000300C18306030180C0000007E00007E00A1
:102C00000030180C060C1830007CC6060C18001892
:102C1000007CC6DED6DEC07C00183C3C667EC3C3AA
:102C200000FCC6C6FCC6C6FC003C66C0C0C0663C14
:102C300000F8CCC6C6C6CCF800FEC0C0F8C0C0FEC6
:102C400000FEC0C0F8C0C0C0003C66C0CEC6C67E94
:102C500000C6C6C6FEC6C6C6007E18181818187E5E
:102C6000000606060666663C00C6CCD8F0D8CCC680
:102C700000C0C0C0C0C0C0FE0082C6EEFED6C6C640
:102C800000C6E6F6DECEC6C6007CC6C6C6C6C67C94
:102C900000FCC6C6FCC0C0C0007CC6C6C6DEC67F7F
:102CA00000FCC6C6FCCCC6C6007CC6C07C06C67C82
:102CB000007E18181818181800C6C6C6C6C6C67EE4
:102CC00000C3C366663C3C1800C6C6C6D6FEEEC648
:102CD00000C3663C183C66C300C3C3663C181818A2
:102CE00000FE060C183060FE003C30303030303CC6
:102CF00000C06030180C0603003C0C0C0C0C0C3CA3
:102D00000010386CC6000000000000000000000049
:102D1000FE18180C000000000000007C067EC67E35
:102D200000C0C0DCE6C6C67C0000007CC6C0C67C15
:102D300000060676CEC6C67E0000007CC6FEC07EBB
:102D4000001E30307C3030300000007AC6C67E066F
:102D50007CC0C0DCE6C6C6C60018001818181818D3
:102D600000060006060606663C6060666C786C66C7
:102D7000003818181818183C000000CCEED6C6C64B
:102D8000000000FCC6C6C6C60000007CC6C6C67CE5
:102D9000000000BCC6C6FCC0C000007AC6C67E06E5
:102DA0000600006E706060600000007EC07C06FC63
:102DB0000018183E1818180E000000C6C6C6C67ABD
:102DC0000000006666663C18000000636B6B3636D8
:102DD00000000063361C3663000000C6C6663C185F
:102DE0007000007E0C18307E000E18187018180E37
:102DF0000018181818181818007018180E181870DD
:102E000000729C000000000000CC33CC33CC33CCEB
:102E1000330000002110422063308440A550C6607A
:102E2000E770088129914AA16BB18CC1ADD1CEE187
:102E3000EFF13112100273325222B5529442F772FE
:102E4000D662399318837BB35AA3BDD39CC3FFF3D7
:102E5000DEE36224433420040114E664C774A4440E
:102E600085546AA54BB528850995EEE5CFF5ACC527
:102E70008DD55336722611163006D776F6669556DE
:102E8000B4465BB77AA719973887DFF7FEE79DD777
:102E9000BCC7C448E5588668A7784008611802286E
:102EA0002338CCC9EDD98EE9AFF9488969990AA9C7
:102EB0002BB9F55AD44AB77A966A711A500A333A3E
:102EC000122AFDDBDCCBBFFB9EEB799B588B3BBB17
:102ED0001AABA66C877CE44CC55C222C033C600CCE
:102EE000411CAEED8FFDECCDCDDD2AAD0BBD688D67
:102EF000499D977EB66ED55EF44E133E322E511E1E
:102F0000700E9FFFBEEFDDDFFCCF1BBF3AAF599FB6
:102F1000788F8891A981CAB1EBA10CD12DC14EF156
:102F20006FE18010A100C230E320045025404670BC
:102F30006760B9839893FBA3DAB33DC31CD37FE3E7
:102F40005EF3B1029012F322D2323542145277620C
:102F50005672EAB5CBA5A89589856EF54FE52CD5B7
:102F60000DC5E234C324A01481046674476424545C
:102F70000544DBA7FAB79987B8975FE77EF71DC7C7
:102F80003CD7D326F2369106B016576676761546AC
:102F900034564CD96DC90EF92FE9C899E9898AB917
:102FA000ABA94458654806782768C018E1088238FC
:102FB000A3287DCB5CDB3FEB1EFBF98BD89BBBAB27
:102FC0009ABB754A545A376A167AF10AD01AB32A4C
:102FD000923A2EFD0FED6CDD4DCDAABD8BADE89D77
:102FE000C98D267C076C645C454CA23C832CE01C9C
:102FF000C10C1FEF3EFF5DCF7CDF9BAFBABFD98F07
:10300000F89F176E367E554E745E932EB23ED10EEB
:10301000F01E0A25732531347300080808080808D3
:10302000080808080808082531337300446F7562E2
:103030006C65004E6F726D616C005041372F5350BC
:10304000493100504231352F53504932000A4375FF
:103050007272656E7420636F6E6669673A0A00204B
:1030600053796E6320506F6C61726974793A2025D0
:10307000730A0020506978656C2054696D696E6729
:103080003A2025730A0020446973706C61792048E6
:1030900065696768743A2025730A00204469737073
:1030A0006C6179204F75747075743A2025730A002D
:1030B00020446973706C617920456E61626C653A79
:1030C0002025730A0020482E4F66663A2025750A8F
:1030D0000020562E4F66663A2025750A0020526F52
:1030E00077733A2025750A0020436F6C756D6E73F7
:1030F0003A2025752D25750A000A2A2A20464620E1
:103100004F534420762573202A2A0A002A2A204B6E
:1031100065697220467261736572203C6B656972E5
:103120002E78656E40676D61696C2E636F6D3E0A27
:10313000002A2A2068747470733A2F2F67697468A4
:1031400075622E636F6D2F6B656972662F46465FE1
:103150004F53440A000A436F6E66696720636F72BB
:10316000727570743A20526573657474696E672065
:10317000746F20466163746F72792044656661756F
:103180006C74730A000A41312D4132204A756D700A
:10319000657265643A20526573657474696E672060
:1031A000746F20466163746F72792044656661753F
:1031B0006C74730A000A4B6579733A0A2053706184
:1031C00063653A2053656C6563740A204F3A204466
:1031D0006F776E0A20503A2055700A004646204FFD
:1031E00053442076257300466C61736820436F6EEC
:1031F0006669670053796E6320506F6C6172697401
:10320000793A004175746F002573202825732900D1
:10321000506978656C2054696D696E673A0044693D
:1032200073706C6179204865696768743A00446915
:1032300073706C6179204F75747075743A004469CD
:1032400073706C617920456E61626C653A00482E3E
:103250004F66662028312D313939293A002575000D
:10326000562E4F66662028322D323939293A0052BF
:103270006F7773202832206F722034293A004D690D
:103280006E2E436F6C2028312D2575293A004D6133
:10329000782E436F6C202825752D2575293A00530B
:1032A000617665204E657720436F6E6669673F00E3
:1032B0005361766500536176652B526573657400C2
:1032C0005573650044697363617264004661637499
:1032D0006F7279205265736574004C6F770048698E
:1032E00067680031356B487A00564741004E6F6E73
:1032F000650050413135204163742E4849474800EC
:1033000050413135204163742E4C4F570048656C55
:10331000640052656C65617365640066660053798C
:103320006E63206C6F73740A004B6579626F617213
:10333000642025730053796E6320666F756E640A8E
:10334000004F5344204F257300303132333435362B
:103350003738394142434445460030313233343501
:103360003637383961626364656600526573657427
:1033700074696E672E2E2E0A0049525100457863FB
:10338000657074696F6E00546872656164004861AD
:103390006E646C657200556E657870656374656403
:1033A000202573202325752061742050433D25304E
:1033B000387820282573293A0A002072303A2020D4
:1033C0002530387820202072313A20202530387876
:1033D00020202072323A2020253038782020207298
:1033E000333A2020253038780A002072343A2020E1
:1033F0002530387820202072353A20202530387842
:1034000020202072363A2020253038782020207263
:10341000373A2020253038780A002072383A2020A8
:103420002530387820202072393A2020253038780D
:103430002020207231303A20253038782020207228
:1034400031313A20253038780A00207231323A2062
:103450002530387820202073703A202025303878A5
:103460002020206C723A20202530387820202070CF
:10347000633A2020253038780A00206D73703A2096
:10348000253038782020207073703A202530387825
:103490002020207073723A20253038780A0000000E
:1034A0000200000010000000010000000000000009
:1034B000000000000000000000000000000000000C
:1034C00000000000000000000000000000000000FC
:1034D00000000000000000000000000000000000EC
:1034E00000000000000000000000000000000000DC
:1034F00000000000000000000000000000000000CC
:1035000000000000000000000000000000000000BB
:1035100000000000000000000000000000000000AB
:10352000000000000000000000000000000000009B
:10353000000000000000000000000000000000008B
:10354000000000000000000000000000000000007B
:0C35500001000000E4140020913501008F
:0400000508000000EF
:00000001FF
